Component: ARM Compiler 5.06 update 7 (build 960) Tool: armlink [4d3601]

==============================================================================

Section Cross References

    main.o(i.Feed_Dog) refers to hal_iwdg.o(i.IWDG_ReloadCounter) for IWDG_ReloadCounter
    main.o(i.IIC_Instructions) refers to iic_slave.o(.data) for iic_statu
    main.o(i.Write_Iwdg_ON) refers to hal_rcc.o(i.RCC_LSICmd) for RCC_LSICmd
    main.o(i.Write_Iwdg_ON) refers to hal_rcc.o(i.RCC_GetFlagStatus) for RCC_GetFlagStatus
    main.o(i.Write_Iwdg_ON) refers to hal_iwdg.o(i.PVU_CheckStatus) for PVU_CheckStatus
    main.o(i.Write_Iwdg_ON) refers to hal_iwdg.o(i.IWDG_WriteAccessCmd) for IWDG_WriteAccessCmd
    main.o(i.Write_Iwdg_ON) refers to hal_iwdg.o(i.IWDG_SetPrescaler) for IWDG_SetPrescaler
    main.o(i.Write_Iwdg_ON) refers to hal_iwdg.o(i.RVU_CheckStatus) for RVU_CheckStatus
    main.o(i.Write_Iwdg_ON) refers to hal_iwdg.o(i.IWDG_SetReload) for IWDG_SetReload
    main.o(i.Write_Iwdg_ON) refers to hal_iwdg.o(i.IWDG_ReloadCounter) for IWDG_ReloadCounter
    main.o(i.Write_Iwdg_ON) refers to hal_iwdg.o(i.IWDG_Enable) for IWDG_Enable
    main.o(i.main) refers to iic_slave.o(i.I2C_NVIC_SlaveInit) for I2C_NVIC_SlaveInit
    main.o(i.main) refers to data.o(i.Flash_Data_Init) for Flash_Data_Init
    main.o(i.main) refers to mcp1081.o(i.Cap_Afe_Init) for Cap_Afe_Init
    main.o(i.main) refers to mcp1081.o(i.MCP1081_T_Measure) for MCP1081_T_Measure
    main.o(i.main) refers to mcp1081.o(i.MCP1081_OSC2_Measure) for MCP1081_OSC2_Measure
    main.o(i.main) refers to data.o(i.MY_I2C_CRC8) for MY_I2C_CRC8
    main.o(i.main) refers to main.o(i.IIC_Instructions) for IIC_Instructions
==============================================================================

Removing Unused input sections from the image.

    Removing main.o(.rev16_text), (4 bytes).
    Removing main.o(.revsh_text), (4 bytes).
    Removing main.o(i.Feed_Dog), (8 bytes).
    Removing main.o(i.Write_Iwdg_ON), (72 bytes).
    Removing mcpxx_it.o(.rev16_text), (4 bytes).
    Removing mcpxx_it.o(.revsh_text), (4 bytes).
    Removing cap_afe.o(.rev16_text), (4 bytes).
    Removing cap_afe.o(.revsh_text), (4 bytes).
    Removing data.o(.rev16_text), (4 bytes).
    Removing data.o(.revsh_text), (4 bytes).
    Removing data.o(i.MYFLASH_WritePara), (54 bytes).
    Removing data.o(.data), (4 bytes).
    Removing i2c.o(.rev16_text), (4 bytes).
    Removing i2c.o(.revsh_text), (4 bytes).
    Removing i2c.o(i.EEPROM_Read), (40 bytes).
    Removing i2c.o(i.EEPROM_ReadBuff), (96 bytes).
    Removing i2c.o(i.EEPROM_ReadPacket), (68 bytes).
    Removing i2c.o(i.EEPROM_SendPacket), (168 bytes).
==============================================================================

Image Symbol Table

    Local Symbols

    Symbol Name                              Value     Ov Type        Size  Object(Section)

    ../clib/microlib/division.c              0x00000000   Number         0  uidiv.o ABSOLUTE
    ../clib/microlib/division.c              0x00000000   Number         0  uldiv.o ABSOLUTE
    ../clib/microlib/init/entry.s            0x00000000   Number         0  entry9b.o ABSOLUTE
    ../clib/microlib/init/entry.s            0x00000000   Number         0  entry5.o ABSOLUTE
    ../clib/microlib/init/entry.s            0x00000000   Number         0  entry.o ABSOLUTE
    ../clib/microlib/init/entry.s            0x00000000   Number         0  entry8b.o ABSOLUTE
    ../clib/microlib/init/entry.s            0x00000000   Number         0  entry7a.o ABSOLUTE
    ../clib/microlib/init/entry.s            0x00000000   Number         0  entry9a.o ABSOLUTE
    ../clib/microlib/init/entry.s            0x00000000   Number         0  entry7b.o ABSOLUTE
    ../clib/microlib/init/entry.s            0x00000000   Number         0  entry8a.o ABSOLUTE
    ../clib/microlib/init/entry.s            0x00000000   Number         0  entry10a.o ABSOLUTE
    ../clib/microlib/init/entry.s            0x00000000   Number         0  entry10b.o ABSOLUTE
    ../clib/microlib/init/entry.s            0x00000000   Number         0  entry11a.o ABSOLUTE
    ../clib/microlib/init/entry.s            0x00000000   Number         0  entry11b.o ABSOLUTE
    ../clib/microlib/init/entry.s            0x00000000   Number         0  entry12a.o ABSOLUTE
    ../clib/microlib/init/entry.s            0x00000000   Number         0  entry2.o ABSOLUTE
    ../clib/microlib/init/entry.s            0x00000000   Number         0  entry12b.o ABSOLUTE
    ../clib/microlib/longlong.c              0x00000000   Number         0  llushr.o ABSOLUTE
    ../clib/microlib/longlong.c              0x00000000   Number         0  llshl.o ABSOLUTE
    ../clib/microlib/longlong.c              0x00000000   Number         0  llsshr.o ABSOLUTE
    ../clib/microlib/printf/printf.c         0x00000000   Number         0  printfa.o ABSOLUTE
    ../clib/microlib/printf/printf.c         0x00000000   Number         0  printf3.o ABSOLUTE
    ../clib/microlib/printf/printf.c         0x00000000   Number         0  printf8.o ABSOLUTE
    ../clib/microlib/printf/printf.c         0x00000000   Number         0  printf7.o ABSOLUTE
    ../clib/microlib/printf/printf.c         0x00000000   Number         0  printf6.o ABSOLUTE
    ../clib/microlib/printf/printf.c         0x00000000   Number         0  printfb.o ABSOLUTE
    ../clib/microlib/printf/printf.c         0x00000000   Number         0  printf4.o ABSOLUTE
    ../clib/microlib/printf/printf.c         0x00000000   Number         0  printf2.o ABSOLUTE
    ../clib/microlib/printf/printf.c         0x00000000   Number         0  printf1.o ABSOLUTE
    ../clib/microlib/printf/printf.c         0x00000000   Number         0  printf0.o ABSOLUTE
    ../clib/microlib/printf/printf.c         0x00000000   Number         0  printf5.o ABSOLUTE
    ../clib/microlib/printf/stubs.s          0x00000000   Number         0  stubs.o ABSOLUTE
    ../clib/microlib/stdio/streams.c         0x00000000   Number         0  stdout.o ABSOLUTE
    ../clib/microlib/string/memset.c         0x00000000   Number         0  memseta.o ABSOLUTE
    ../clib/microlib/stubs.s                 0x00000000   Number         0  iusefp.o ABSOLUTE
    ../fplib/microlib/d2f.c                  0x00000000   Number         0  d2f.o ABSOLUTE
    ../fplib/microlib/f2d.c                  0x00000000   Number         0  f2d.o ABSOLUTE
    ../fplib/microlib/fpadd.c                0x00000000   Number         0  dadd.o ABSOLUTE
    ../fplib/microlib/fpdiv.c                0x00000000   Number         0  ddiv.o ABSOLUTE
    ../fplib/microlib/fpdiv.c                0x00000000   Number         0  fdiv.o ABSOLUTE
    ../fplib/microlib/fpepilogue.c           0x00000000   Number         0  fepilogue.o ABSOLUTE
    ../fplib/microlib/fpepilogue.c           0x00000000   Number         0  depilogue.o ABSOLUTE
    ../fplib/microlib/fpfix.c                0x00000000   Number         0  dfixul.o ABSOLUTE
    ../fplib/microlib/fpflt.c                0x00000000   Number         0  dfltui.o ABSOLUTE
    ../fplib/microlib/fpflt.c                0x00000000   Number         0  dflti.o ABSOLUTE
    ../fplib/microlib/fpflt.c                0x00000000   Number         0  ffltui.o ABSOLUTE
    ../fplib/microlib/fpmul.c                0x00000000   Number         0  dmul.o ABSOLUTE
    ..\..\..\..\Device\MCP1081\HAL_Lib\src\hal_adc.c 0x00000000   Number         0  hal_adc.o ABSOLUTE
    ..\..\..\..\Device\MCP1081\HAL_Lib\src\hal_crc.c 0x00000000   Number         0  hal_crc.o ABSOLUTE
    ..\..\..\..\Device\MCP1081\HAL_Lib\src\hal_dbg.c 0x00000000   Number         0  hal_dbg.o ABSOLUTE
    ..\..\..\..\Device\MCP1081\HAL_Lib\src\hal_exti.c 0x00000000   Number         0  hal_exti.o ABSOLUTE
    ..\..\..\..\Device\MCP1081\HAL_Lib\src\hal_flash.c 0x00000000   Number         0  hal_flash.o ABSOLUTE
    ..\..\..\..\Device\MCP1081\HAL_Lib\src\hal_gpio.c 0x00000000   Number         0  hal_gpio.o ABSOLUTE
    ..\..\..\..\Device\MCP1081\HAL_Lib\src\hal_i2c.c 0x00000000   Number         0  hal_i2c.o ABSOLUTE
    ..\..\..\..\Device\MCP1081\HAL_Lib\src\hal_iwdg.c 0x00000000   Number         0  hal_iwdg.o ABSOLUTE
    ..\..\..\..\Device\MCP1081\HAL_Lib\src\hal_misc.c 0x00000000   Number         0  hal_misc.o ABSOLUTE
    ..\..\..\..\Device\MCP1081\HAL_Lib\src\hal_pwr.c 0x00000000   Number         0  hal_pwr.o ABSOLUTE
    ..\..\..\..\Device\MCP1081\HAL_Lib\src\hal_rcc.c 0x00000000   Number         0  hal_rcc.o ABSOLUTE
    ..\..\..\..\Device\MCP1081\HAL_Lib\src\hal_spi.c 0x00000000   Number         0  hal_spi.o ABSOLUTE
    ..\..\..\..\Device\MCP1081\HAL_Lib\src\hal_syscfg.c 0x00000000   Number         0  hal_syscfg.o ABSOLUTE
    ..\..\..\..\Device\MCP1081\HAL_Lib\src\hal_tim.c 0x00000000   Number         0  hal_tim.o ABSOLUTE
    ..\..\..\..\Device\MCP1081\HAL_Lib\src\hal_uid.c 0x00000000   Number         0  hal_uid.o ABSOLUTE
    ..\..\..\..\Device\MCP1081\HAL_Lib\src\hal_usart.c 0x00000000   Number         0  hal_usart.o ABSOLUTE
    ..\..\..\..\Device\MCP1081\Source\KEIL_StartAsm\startup_mcp1081_keil.s 0x00000000   Number         0  startup_mcp1081_keil.o ABSOLUTE
    ..\..\..\..\Device\MCP1081\Source\system_mcp1081.c 0x00000000   Number         0  system_mcp1081.o ABSOLUTE
    ..\MCP1081_Driver\IIC_SLAVE.c            0x00000000   Number         0  iic_slave.o ABSOLUTE
    ..\MCP1081_Driver\cap_afe.c              0x00000000   Number         0  cap_afe.o ABSOLUTE
    ..\MCP1081_Driver\data.c                 0x00000000   Number         0  data.o ABSOLUTE
    ..\MCP1081_Driver\i2c.c                  0x00000000   Number         0  i2c.o ABSOLUTE
    ..\MCP1081_Driver\mcp1081.c              0x00000000   Number         0  mcp1081.o ABSOLUTE
    ..\MCP1081_Driver\platform.c             0x00000000   Number         0  platform.o ABSOLUTE
    ..\\..\\..\\..\\Device\\MCP1081\\HAL_Lib\\src\\hal_adc.c 0x00000000   Number         0  hal_adc.o ABSOLUTE
    ..\\..\\..\\..\\Device\\MCP1081\\HAL_Lib\\src\\hal_crc.c 0x00000000   Number         0  hal_crc.o ABSOLUTE
    ..\\..\\..\\..\\Device\\MCP1081\\HAL_Lib\\src\\hal_dbg.c 0x00000000   Number         0  hal_dbg.o ABSOLUTE
    ..\\..\\..\\..\\Device\\MCP1081\\HAL_Lib\\src\\hal_exti.c 0x00000000   Number         0  hal_exti.o ABSOLUTE
    ..\\..\\..\\..\\Device\\MCP1081\\HAL_Lib\\src\\hal_flash.c 0x00000000   Number         0  hal_flash.o ABSOLUTE
    ..\\..\\..\\..\\Device\\MCP1081\\HAL_Lib\\src\\hal_gpio.c 0x00000000   Number         0  hal_gpio.o ABSOLUTE
    ..\\..\\..\\..\\Device\\MCP1081\\HAL_Lib\\src\\hal_i2c.c 0x00000000   Number         0  hal_i2c.o ABSOLUTE
    ..\\..\\..\\..\\Device\\MCP1081\\HAL_Lib\\src\\hal_iwdg.c 0x00000000   Number         0  hal_iwdg.o ABSOLUTE
    ..\\..\\..\\..\\Device\\MCP1081\\HAL_Lib\\src\\hal_misc.c 0x00000000   Number         0  hal_misc.o ABSOLUTE
    ..\\..\\..\\..\\Device\\MCP1081\\HAL_Lib\\src\\hal_pwr.c 0x00000000   Number         0  hal_pwr.o ABSOLUTE
    ..\\..\\..\\..\\Device\\MCP1081\\HAL_Lib\\src\\hal_rcc.c 0x00000000   Number         0  hal_rcc.o ABSOLUTE
    ..\\..\\..\\..\\Device\\MCP1081\\HAL_Lib\\src\\hal_spi.c 0x00000000   Number         0  hal_spi.o ABSOLUTE
    ..\\..\\..\\..\\Device\\MCP1081\\HAL_Lib\\src\\hal_syscfg.c 0x00000000   Number         0  hal_syscfg.o ABSOLUTE
    ..\\..\\..\\..\\Device\\MCP1081\\HAL_Lib\\src\\hal_tim.c 0x00000000   Number         0  hal_tim.o ABSOLUTE
    ..\\..\\..\\..\\Device\\MCP1081\\HAL_Lib\\src\\hal_uid.c 0x00000000   Number         0  hal_uid.o ABSOLUTE
    ..\\..\\..\\..\\Device\\MCP1081\\HAL_Lib\\src\\hal_usart.c 0x00000000   Number         0  hal_usart.o ABSOLUTE
    ..\\..\\..\\..\\Device\\MCP1081\\Source\\system_mcp1081.c 0x00000000   Number         0  system_mcp1081.o ABSOLUTE
    ..\\MCP1081_Driver\\IIC_SLAVE.c          0x00000000   Number         0  iic_slave.o ABSOLUTE
    ..\\MCP1081_Driver\\cap_afe.c            0x00000000   Number         0  cap_afe.o ABSOLUTE
    ..\\MCP1081_Driver\\data.c               0x00000000   Number         0  data.o ABSOLUTE
    ..\\MCP1081_Driver\\i2c.c                0x00000000   Number         0  i2c.o ABSOLUTE
    ..\\MCP1081_Driver\\mcp1081.c            0x00000000   Number         0  mcp1081.o ABSOLUTE
    ..\\MCP1081_Driver\\platform.c           0x00000000   Number         0  platform.o ABSOLUTE
    ..\\main.c                               0x00000000   Number         0  main.o ABSOLUTE
    ..\\mcpxx_it.c                           0x00000000   Number         0  mcpxx_it.o ABSOLUTE
    ..\main.c                                0x00000000   Number         0  main.o ABSOLUTE
    ..\mcpxx_it.c                            0x00000000   Number         0  mcpxx_it.o ABSOLUTE
    cdrcmple.s                               0x00000000   Number         0  cdrcmple.o ABSOLUTE
    dc.s                                     0x00000000   Number         0  dc.o ABSOLUTE
    handlers.s                               0x00000000   Number         0  handlers.o ABSOLUTE
    init.s                                   0x00000000   Number         0  init.o ABSOLUTE
    RESET                                    0x08000000   Section      192  startup_mcp1081_keil.o(RESET)
    .ARM.Collect$$$$00000000                 0x080000c0   Section        0  entry.o(.ARM.Collect$$$$00000000)
    .ARM.Collect$$$$00000001                 0x080000c0   Section        4  entry2.o(.ARM.Collect$$$$00000001)
    .ARM.Collect$$$$00000004                 0x080000c4   Section        4  entry5.o(.ARM.Collect$$$$00000004)
    .ARM.Collect$$$$00000008                 0x080000c8   Section        0  entry7b.o(.ARM.Collect$$$$00000008)
    .ARM.Collect$$$$0000000A                 0x080000c8   Section        0  entry8b.o(.ARM.Collect$$$$0000000A)
    .ARM.Collect$$$$0000000B                 0x080000c8   Section        8  entry9a.o(.ARM.Collect$$$$0000000B)
    .ARM.Collect$$$$0000000E                 0x080000d0   Section        4  entry12b.o(.ARM.Collect$$$$0000000E)
    .ARM.Collect$$$$0000000F                 0x080000d4   Section        0  entry10a.o(.ARM.Collect$$$$0000000F)
    .ARM.Collect$$$$00000011                 0x080000d4   Section        0  entry11a.o(.ARM.Collect$$$$00000011)
    .ARM.Collect$$$$00002712                 0x080000d4   Section        4  entry2.o(.ARM.Collect$$$$00002712)
    __lit__00000000                          0x080000d4   Data           4  entry2.o(.ARM.Collect$$$$00002712)
    .text                                    0x080000d8   Section       28  startup_mcp1081_keil.o(.text)
    .text                                    0x080000f4   Section        0  memseta.o(.text)
    .text                                    0x08000118   Section        0  fdiv.o(.text)
    .text                                    0x08000194   Section        0  dadd.o(.text)
    .text                                    0x080002fc   Section        0  dmul.o(.text)
    .text                                    0x080003cc   Section        0  ddiv.o(.text)
    .text                                    0x080004bc   Section        0  ffltui.o(.text)
    .text                                    0x080004cc   Section        0  dflti.o(.text)
    .text                                    0x080004f4   Section        0  dfltui.o(.text)
    .text                                    0x08000510   Section        0  f2d.o(.text)
    .text                                    0x08000538   Section        0  d2f.o(.text)
    .text                                    0x08000570   Section        0  llshl.o(.text)
    .text                                    0x08000590   Section        0  llsshr.o(.text)
    .text                                    0x080005b6   Section        0  fepilogue.o(.text)
    .text                                    0x080005b6   Section        0  iusefp.o(.text)
    .text                                    0x08000638   Section        0  depilogue.o(.text)
    .text                                    0x080006f8   Section       36  init.o(.text)
    .text                                    0x0800071c   Section        0  llushr.o(.text)
    i.CAP_AFE_Receive                        0x0800073e   Section        0  cap_afe.o(i.CAP_AFE_Receive)
    i.CAP_AFE_Transmit                       0x080007be   Section        0  cap_afe.o(i.CAP_AFE_Transmit)
    i.Cap_Afe_Init                           0x08000818   Section        0  mcp1081.o(i.Cap_Afe_Init)
    i.Delay_ms                               0x08000840   Section        0  platform.o(i.Delay_ms)
    i.Delay_us                               0x0800085a   Section        0  platform.o(i.Delay_us)
    i.Flash_Data_Init                        0x0800086c   Section        0  data.o(i.Flash_Data_Init)
    i.GPIOI2C_Bus_Init                       0x080008a0   Section        0  mcp1081.o(i.GPIOI2C_Bus_Init)
    i.GPIO_Init                              0x080008e8   Section        0  hal_gpio.o(i.GPIO_Init)
    i.GPIO_PinAFConfig                       0x0800096e   Section        0  hal_gpio.o(i.GPIO_PinAFConfig)
    i.GPIO_StructInit                        0x0800098e   Section        0  hal_gpio.o(i.GPIO_StructInit)
    i.HardFault_Handler                      0x0800099e   Section        0  mcpxx_it.o(i.HardFault_Handler)
    i.I2C1_IRQHandler                        0x080009a0   Section        0  iic_slave.o(i.I2C1_IRQHandler)
    i.I2C_ClearITPendingBit                  0x08000b84   Section        0  hal_i2c.o(i.I2C_ClearITPendingBit)
    i.I2C_DeInit                             0x08000bc4   Section        0  hal_i2c.o(i.I2C_DeInit)
    i.I2C_GetFlagStatus                      0x08000be4   Section        0  hal_i2c.o(i.I2C_GetFlagStatus)
    i.I2C_GetITStatus                        0x08000c06   Section        0  hal_i2c.o(i.I2C_GetITStatus)
    i.I2C_NVIC_SlaveInit                     0x08000c14   Section        0  iic_slave.o(i.I2C_NVIC_SlaveInit)
    i.I2C_ReceiveData                        0x08000c80   Section        0  hal_i2c.o(i.I2C_ReceiveData)
    i.I2C_SendData                           0x08000c86   Section        0  hal_i2c.o(i.I2C_SendData)
    i.I2C_SlaveAddressConfig                 0x08000c8a   Section        0  hal_i2c.o(i.I2C_SlaveAddressConfig)
    i.I2C_SlaveMode                          0x08000c98   Section        0  iic_slave.o(i.I2C_SlaveMode)
    i.I2C_Start                              0x08000cf0   Section        0  cap_afe.o(i.I2C_Start)
    i.I2C_Stop                               0x08000d12   Section        0  cap_afe.o(i.I2C_Stop)
    i.I2C_StructInit                         0x08000d38   Section        0  hal_i2c.o(i.I2C_StructInit)
    i.I2C_master_read                        0x08000d4c   Section        0  cap_afe.o(i.I2C_master_read)
    i.I2C_master_write                       0x08000da8   Section        0  cap_afe.o(i.I2C_master_write)
    i.I2C_reStart                            0x08000e04   Section        0  cap_afe.o(i.I2C_reStart)
    i.IIC_Instructions                       0x08000e34   Section        0  main.o(i.IIC_Instructions)
    i.MCP1081_OSC2_Measure                   0x08000e54   Section        0  mcp1081.o(i.MCP1081_OSC2_Measure)
    i.MCP1081_T_Measure                      0x0800101c   Section        0  mcp1081.o(i.MCP1081_T_Measure)
    i.MYFLASH_ReadPara                       0x080010a4   Section        0  data.o(i.MYFLASH_ReadPara)
    i.MY_I2C_CRC8                            0x080010b6   Section        0  data.o(i.MY_I2C_CRC8)
    i.NMI_Handler                            0x080010ec   Section        0  mcpxx_it.o(i.NMI_Handler)
    i.NVIC_Init                              0x080010f0   Section        0  hal_misc.o(i.NVIC_Init)
    i.PendSV_Handler                         0x08001140   Section        0  mcpxx_it.o(i.PendSV_Handler)
    i.RCC_AHBPeriphClockCmd                  0x08001144   Section        0  hal_rcc.o(i.RCC_AHBPeriphClockCmd)
    i.RCC_APB1PeriphClockCmd                 0x08001160   Section        0  hal_rcc.o(i.RCC_APB1PeriphClockCmd)
    i.RCC_APB1PeriphResetCmd                 0x0800117c   Section        0  hal_rcc.o(i.RCC_APB1PeriphResetCmd)
    i.Registers_Init                         0x08001198   Section        0  cap_afe.o(i.Registers_Init)
    i.SVC_Handler                            0x0800121e   Section        0  mcpxx_it.o(i.SVC_Handler)
    i.SetSysClockToDefine                    0x08001220   Section        0  system_mcp1081.o(i.SetSysClockToDefine)
    SetSysClockToDefine                      0x08001221   Thumb Code   202  system_mcp1081.o(i.SetSysClockToDefine)
    i.SysTick_Handler                        0x08001300   Section        0  mcpxx_it.o(i.SysTick_Handler)
    i.SystemInit                             0x08001314   Section        0  system_mcp1081.o(i.SystemInit)
    i.__ARM_clz                              0x0800134c   Section        0  depilogue.o(i.__ARM_clz)
    i.__scatterload_copy                     0x0800137a   Section       14  handlers.o(i.__scatterload_copy)
    i.__scatterload_null                     0x08001388   Section        2  handlers.o(i.__scatterload_null)
    i.__scatterload_zeroinit                 0x0800138a   Section       14  handlers.o(i.__scatterload_zeroinit)
    i.is_timeout                             0x08001398   Section        0  platform.o(i.is_timeout)
    i.main                                   0x080013b0   Section        0  main.o(i.main)
    i.set_timeout_usec                       0x0800143c   Section        0  platform.o(i.set_timeout_usec)
    set_timeout_usec                         0x0800143d   Thumb Code    26  platform.o(i.set_timeout_usec)
    .data                                    0x20000000   Section        3  main.o(.data)
    .data                                    0x20000003   Section      150  data.o(.data)
    .data                                    0x20000099   Section       20  data.o(.data)
    .data                                    0x200000ae   Section        8  iic_slave.o(.data)
    .data                                    0x200000b8   Section        4  platform.o(.data)
    .data                                    0x200000bc   Section        4  system_mcp1081.o(.data)
    .bss                                     0x200000c0   Section       72  main.o(.bss)
    .bss                                     0x20000108   Section       20  iic_slave.o(.bss)
    STACK                                    0x20000120   Section      512  startup_mcp1081_keil.o(STACK)

    Global Symbols

    Symbol Name                              Value     Ov Type        Size  Object(Section)

    BuildAttributes$$THM_ISAv3M$S$PE$A:L22$X:L11$S22$IEEE1$IW$USESV6$~STKCKD$USESV7$~SHL$OTIME$ROPI$EBA8$MICROLIB$REQ8$PRES8$EABIv2 0x00000000   Number         0  anon$$obj.o ABSOLUTE
    __ARM_use_no_argv                        0x00000000   Number         0  main.o ABSOLUTE
    _printf_a                                0x00000000   Number         0  stubs.o ABSOLUTE
    _printf_c                                0x00000000   Number         0  stubs.o ABSOLUTE
    _printf_charcount                        0x00000000   Number         0  stubs.o ABSOLUTE
    _printf_d                                0x00000000   Number         0  stubs.o ABSOLUTE
    _printf_e                                0x00000000   Number         0  stubs.o ABSOLUTE
    _printf_f                                0x00000000   Number         0  stubs.o ABSOLUTE
    _printf_flags                            0x00000000   Number         0  stubs.o ABSOLUTE
    _printf_fp_dec                           0x00000000   Number         0  stubs.o ABSOLUTE
    _printf_fp_hex                           0x00000000   Number         0  stubs.o ABSOLUTE
    _printf_g                                0x00000000   Number         0  stubs.o ABSOLUTE
    _printf_i                                0x00000000   Number         0  stubs.o ABSOLUTE
    _printf_int_dec                          0x00000000   Number         0  stubs.o ABSOLUTE
    _printf_l                                0x00000000   Number         0  stubs.o ABSOLUTE
    _printf_lc                               0x00000000   Number         0  stubs.o ABSOLUTE
    _printf_ll                               0x00000000   Number         0  stubs.o ABSOLUTE
    _printf_lld                              0x00000000   Number         0  stubs.o ABSOLUTE
    _printf_lli                              0x00000000   Number         0  stubs.o ABSOLUTE
    _printf_llo                              0x00000000   Number         0  stubs.o ABSOLUTE
    _printf_llu                              0x00000000   Number         0  stubs.o ABSOLUTE
    _printf_llx                              0x00000000   Number         0  stubs.o ABSOLUTE
    _printf_longlong_dec                     0x00000000   Number         0  stubs.o ABSOLUTE
    _printf_longlong_hex                     0x00000000   Number         0  stubs.o ABSOLUTE
    _printf_longlong_oct                     0x00000000   Number         0  stubs.o ABSOLUTE
    _printf_ls                               0x00000000   Number         0  stubs.o ABSOLUTE
    _printf_mbtowc                           0x00000000   Number         0  stubs.o ABSOLUTE
    _printf_n                                0x00000000   Number         0  stubs.o ABSOLUTE
    _printf_o                                0x00000000   Number         0  stubs.o ABSOLUTE
    _printf_p                                0x00000000   Number         0  stubs.o ABSOLUTE
    _printf_percent                          0x00000000   Number         0  stubs.o ABSOLUTE
    _printf_pre_padding                      0x00000000   Number         0  stubs.o ABSOLUTE
    _printf_return_value                     0x00000000   Number         0  stubs.o ABSOLUTE
    _printf_s                                0x00000000   Number         0  stubs.o ABSOLUTE
    _printf_sizespec                         0x00000000   Number         0  stubs.o ABSOLUTE
    _printf_str                              0x00000000   Number         0  stubs.o ABSOLUTE
    _printf_truncate_signed                  0x00000000   Number         0  stubs.o ABSOLUTE
    _printf_truncate_unsigned                0x00000000   Number         0  stubs.o ABSOLUTE
    _printf_u                                0x00000000   Number         0  stubs.o ABSOLUTE
    _printf_wc                               0x00000000   Number         0  stubs.o ABSOLUTE
    _printf_wctomb                           0x00000000   Number         0  stubs.o ABSOLUTE
    _printf_widthprec                        0x00000000   Number         0  stubs.o ABSOLUTE
    _printf_x                                0x00000000   Number         0  stubs.o ABSOLUTE
    __arm_fini_                               - Undefined Weak Reference
    __cpp_initialize__aeabi_                  - Undefined Weak Reference
    __cxa_finalize                            - Undefined Weak Reference
    __decompress                              - Undefined Weak Reference
    _clock_init                               - Undefined Weak Reference
    _microlib_exit                            - Undefined Weak Reference
    __Vectors_Size                           0x000000c0   Number         0  startup_mcp1081_keil.o ABSOLUTE
    __Vectors                                0x08000000   Data           4  startup_mcp1081_keil.o(RESET)
    __Vectors_End                            0x080000c0   Data           0  startup_mcp1081_keil.o(RESET)
    __main                                   0x080000c1   Thumb Code     0  entry.o(.ARM.Collect$$$$00000000)
    _main_stk                                0x080000c1   Thumb Code     0  entry2.o(.ARM.Collect$$$$00000001)
    _main_scatterload                        0x080000c5   Thumb Code     0  entry5.o(.ARM.Collect$$$$00000004)
    __main_after_scatterload                 0x080000c9   Thumb Code     0  entry5.o(.ARM.Collect$$$$00000004)
    _main_clock                              0x080000c9   Thumb Code     0  entry7b.o(.ARM.Collect$$$$00000008)
    _main_cpp_init                           0x080000c9   Thumb Code     0  entry8b.o(.ARM.Collect$$$$0000000A)
    _main_init                               0x080000c9   Thumb Code     0  entry9a.o(.ARM.Collect$$$$0000000B)
    __rt_lib_shutdown_fini                   0x080000d1   Thumb Code     0  entry12b.o(.ARM.Collect$$$$0000000E)
    __rt_final_cpp                           0x080000d5   Thumb Code     0  entry10a.o(.ARM.Collect$$$$0000000F)
    __rt_final_exit                          0x080000d5   Thumb Code     0  entry11a.o(.ARM.Collect$$$$00000011)
    Reset_Handler                            0x080000d9   Thumb Code     8  startup_mcp1081_keil.o(.text)
    ADC_IRQHandler                           0x080000eb   Thumb Code     0  startup_mcp1081_keil.o(.text)
    EXTI0_1_IRQHandler                       0x080000eb   Thumb Code     0  startup_mcp1081_keil.o(.text)
    EXTI2_3_IRQHandler                       0x080000eb   Thumb Code     0  startup_mcp1081_keil.o(.text)
    EXTI4_15_IRQHandler                      0x080000eb   Thumb Code     0  startup_mcp1081_keil.o(.text)
    FLASH_IRQHandler                         0x080000eb   Thumb Code     0  startup_mcp1081_keil.o(.text)
    IWDG_IRQHandler                          0x080000eb   Thumb Code     0  startup_mcp1081_keil.o(.text)
    PVD_IRQHandler                           0x080000eb   Thumb Code     0  startup_mcp1081_keil.o(.text)
    RCC_IRQHandler                           0x080000eb   Thumb Code     0  startup_mcp1081_keil.o(.text)
    SPI1_IRQHandler                          0x080000eb   Thumb Code     0  startup_mcp1081_keil.o(.text)
    TIM14_IRQHandler                         0x080000eb   Thumb Code     0  startup_mcp1081_keil.o(.text)
    TIM1_BRK_UP_TRG_COM_IRQHandler           0x080000eb   Thumb Code     0  startup_mcp1081_keil.o(.text)
    TIM1_CC_IRQHandler                       0x080000eb   Thumb Code     0  startup_mcp1081_keil.o(.text)
    TIM3_IRQHandler                          0x080000eb   Thumb Code     0  startup_mcp1081_keil.o(.text)
    USART1_IRQHandler                        0x080000eb   Thumb Code     0  startup_mcp1081_keil.o(.text)
    USART2_IRQHandler                        0x080000eb   Thumb Code     0  startup_mcp1081_keil.o(.text)
    __aeabi_memset                           0x080000f5   Thumb Code    14  memseta.o(.text)
    __aeabi_memset4                          0x080000f5   Thumb Code     0  memseta.o(.text)
    __aeabi_memset8                          0x080000f5   Thumb Code     0  memseta.o(.text)
    __aeabi_memclr                           0x08000103   Thumb Code     4  memseta.o(.text)
    __aeabi_memclr4                          0x08000103   Thumb Code     0  memseta.o(.text)
    __aeabi_memclr8                          0x08000103   Thumb Code     0  memseta.o(.text)
    _memset$wrapper                          0x08000107   Thumb Code    18  memseta.o(.text)
    __aeabi_fdiv                             0x08000119   Thumb Code   124  fdiv.o(.text)
    __aeabi_dadd                             0x08000195   Thumb Code   330  dadd.o(.text)
    __aeabi_dsub                             0x080002df   Thumb Code    12  dadd.o(.text)
    __aeabi_drsub                            0x080002eb   Thumb Code    12  dadd.o(.text)
    __aeabi_dmul                             0x080002fd   Thumb Code   202  dmul.o(.text)
    __aeabi_ddiv                             0x080003cd   Thumb Code   234  ddiv.o(.text)
    __aeabi_ui2f                             0x080004bd   Thumb Code    14  ffltui.o(.text)
    __aeabi_i2d                              0x080004cd   Thumb Code    34  dflti.o(.text)
    __aeabi_ui2d                             0x080004f5   Thumb Code    24  dfltui.o(.text)
    __aeabi_f2d                              0x08000511   Thumb Code    40  f2d.o(.text)
    __aeabi_d2f                              0x08000539   Thumb Code    56  d2f.o(.text)
    __aeabi_llsl                             0x08000571   Thumb Code    32  llshl.o(.text)
    _ll_shift_l                              0x08000571   Thumb Code     0  llshl.o(.text)
    __aeabi_lasr                             0x08000591   Thumb Code    38  llsshr.o(.text)
    _ll_sshift_r                             0x08000591   Thumb Code     0  llsshr.o(.text)
    __I$use$fp                               0x080005b7   Thumb Code     0  iusefp.o(.text)
    _float_round                             0x080005b7   Thumb Code    16  fepilogue.o(.text)
    _float_epilogue                          0x080005c7   Thumb Code   114  fepilogue.o(.text)
    _double_round                            0x08000639   Thumb Code    26  depilogue.o(.text)
    _double_epilogue                         0x08000653   Thumb Code   164  depilogue.o(.text)
    __scatterload                            0x080006f9   Thumb Code    28  init.o(.text)
    __scatterload_rt2                        0x080006f9   Thumb Code     0  init.o(.text)
    __aeabi_llsr                             0x0800071d   Thumb Code    34  llushr.o(.text)
    _ll_ushift_r                             0x0800071d   Thumb Code     0  llushr.o(.text)
    CAP_AFE_Receive                          0x0800073f   Thumb Code   128  cap_afe.o(i.CAP_AFE_Receive)
    CAP_AFE_Transmit                         0x080007bf   Thumb Code    90  cap_afe.o(i.CAP_AFE_Transmit)
    Cap_Afe_Init                             0x08000819   Thumb Code    40  mcp1081.o(i.Cap_Afe_Init)
    Delay_ms                                 0x08000841   Thumb Code    26  platform.o(i.Delay_ms)
    Delay_us                                 0x0800085b   Thumb Code    16  platform.o(i.Delay_us)
    Flash_Data_Init                          0x0800086d   Thumb Code    42  data.o(i.Flash_Data_Init)
    GPIOI2C_Bus_Init                         0x080008a1   Thumb Code    72  mcp1081.o(i.GPIOI2C_Bus_Init)
    GPIO_Init                                0x080008e9   Thumb Code   134  hal_gpio.o(i.GPIO_Init)
    GPIO_PinAFConfig                         0x0800096f   Thumb Code    32  hal_gpio.o(i.GPIO_PinAFConfig)
    GPIO_StructInit                          0x0800098f   Thumb Code    16  hal_gpio.o(i.GPIO_StructInit)
    HardFault_Handler                        0x0800099f   Thumb Code     2  mcpxx_it.o(i.HardFault_Handler)
    I2C1_IRQHandler                          0x080009a1   Thumb Code   450  iic_slave.o(i.I2C1_IRQHandler)
    I2C_ClearITPendingBit                    0x08000b85   Thumb Code    62  hal_i2c.o(i.I2C_ClearITPendingBit)
    I2C_DeInit                               0x08000bc5   Thumb Code    28  hal_i2c.o(i.I2C_DeInit)
    I2C_GetFlagStatus                        0x08000be5   Thumb Code    34  hal_i2c.o(i.I2C_GetFlagStatus)
    I2C_GetITStatus                          0x08000c07   Thumb Code    14  hal_i2c.o(i.I2C_GetITStatus)
    I2C_NVIC_SlaveInit                       0x08000c15   Thumb Code   108  iic_slave.o(i.I2C_NVIC_SlaveInit)
    I2C_ReceiveData                          0x08000c81   Thumb Code     6  hal_i2c.o(i.I2C_ReceiveData)
    I2C_SendData                             0x08000c87   Thumb Code     4  hal_i2c.o(i.I2C_SendData)
    I2C_SlaveAddressConfig                   0x08000c8b   Thumb Code    14  hal_i2c.o(i.I2C_SlaveAddressConfig)
    I2C_SlaveMode                            0x08000c99   Thumb Code    78  iic_slave.o(i.I2C_SlaveMode)
    I2C_Start                                0x08000cf1   Thumb Code    34  cap_afe.o(i.I2C_Start)
    I2C_Stop                                 0x08000d13   Thumb Code    38  cap_afe.o(i.I2C_Stop)
    I2C_StructInit                           0x08000d39   Thumb Code    14  hal_i2c.o(i.I2C_StructInit)
    I2C_master_read                          0x08000d4d   Thumb Code    92  cap_afe.o(i.I2C_master_read)
    I2C_master_write                         0x08000da9   Thumb Code    92  cap_afe.o(i.I2C_master_write)
    I2C_reStart                              0x08000e05   Thumb Code    46  cap_afe.o(i.I2C_reStart)
    IIC_Instructions                         0x08000e35   Thumb Code    26  main.o(i.IIC_Instructions)
    MCP1081_OSC2_Measure                     0x08000e55   Thumb Code   434  mcp1081.o(i.MCP1081_OSC2_Measure)
    MCP1081_T_Measure                        0x0800101d   Thumb Code   124  mcp1081.o(i.MCP1081_T_Measure)
    MYFLASH_ReadPara                         0x080010a5   Thumb Code    18  data.o(i.MYFLASH_ReadPara)
    MY_I2C_CRC8                              0x080010b7   Thumb Code    54  data.o(i.MY_I2C_CRC8)
    NMI_Handler                              0x080010ed   Thumb Code     2  mcpxx_it.o(i.NMI_Handler)
    NVIC_Init                                0x080010f1   Thumb Code    72  hal_misc.o(i.NVIC_Init)
    PendSV_Handler                           0x08001141   Thumb Code     2  mcpxx_it.o(i.PendSV_Handler)
    RCC_AHBPeriphClockCmd                    0x08001145   Thumb Code    22  hal_rcc.o(i.RCC_AHBPeriphClockCmd)
    RCC_APB1PeriphClockCmd                   0x08001161   Thumb Code    22  hal_rcc.o(i.RCC_APB1PeriphClockCmd)
    RCC_APB1PeriphResetCmd                   0x0800117d   Thumb Code    22  hal_rcc.o(i.RCC_APB1PeriphResetCmd)
    Registers_Init                           0x08001199   Thumb Code   134  cap_afe.o(i.Registers_Init)
    SVC_Handler                              0x0800121f   Thumb Code     2  mcpxx_it.o(i.SVC_Handler)
    SysTick_Handler                          0x08001301   Thumb Code    16  mcpxx_it.o(i.SysTick_Handler)
    SystemInit                               0x08001315   Thumb Code    46  system_mcp1081.o(i.SystemInit)
    __ARM_clz                                0x0800134d   Thumb Code    46  depilogue.o(i.__ARM_clz)
    __scatterload_copy                       0x0800137b   Thumb Code    14  handlers.o(i.__scatterload_copy)
    __scatterload_null                       0x08001389   Thumb Code     2  handlers.o(i.__scatterload_null)
    __scatterload_zeroinit                   0x0800138b   Thumb Code    14  handlers.o(i.__scatterload_zeroinit)
    is_timeout                               0x08001399   Thumb Code    20  platform.o(i.is_timeout)
    main                                     0x080013b1   Thumb Code   122  main.o(i.main)
    Region$$Table$$Base                      0x0800145c   Number         0  anon$$obj.o(Region$$Table)
    Region$$Table$$Limit                     0x0800147c   Number         0  anon$$obj.o(Region$$Table)
    crc_data                                 0x20000000   Data           3  main.o(.data)
    FLASH_DATA                               0x20000003   Data         150  data.o(.data)
    CALIBRATION_DATA                         0x20000099   Data          20  data.o(.data)
    gRxCnt                                   0x200000ae   Data           1  iic_slave.o(.data)
    i_iic                                    0x200000af   Data           1  iic_slave.o(.data)
    iic_statu                                0x200000b0   Data           1  iic_slave.o(.data)
    StartAddress                             0x200000b2   Data           2  iic_slave.o(.data)
    CMD                                      0x200000b4   Data           2  iic_slave.o(.data)
    PLATFORM_DelayTick                       0x200000b8   Data           4  platform.o(.data)
    SystemCoreClock                          0x200000bc   Data           4  system_mcp1081.o(.data)
    cap_structure                            0x200000c0   Data          60  main.o(.bss)
    cap_init_structure                       0x200000fc   Data          12  main.o(.bss)
    gRxBuff                                  0x20000108   Data          20  iic_slave.o(.bss)
    __initial_sp                             0x20000320   Data           0  startup_mcp1081_keil.o(STACK)



==============================================================================

Memory Map of the image

  Image Entry point : 0x080000c1

  Load Region LR_IROM1 (Base: 0x08000000, Size: 0x0000153c, Max: 0x00004000, ABSOLUTE)

    Execution Region ER_IROM1 (Exec base: 0x08000000, Load base: 0x08000000, Size: 0x0000147c, Max: 0x00004000, ABSOLUTE)

    Exec Addr    Load Addr    Size         Type   Attr      Idx    E Section Name        Object

    0x08000000   0x08000000   0x000000c0   Data   RO         2597    RESET               startup_mcp1081_keil.o
    0x080000c0   0x080000c0   0x00000000   Code   RO         2602  * .ARM.Collect$$$$00000000  mc_p.l(entry.o)
    0x080000c0   0x080000c0   0x00000004   Code   RO         2888    .ARM.Collect$$$$00000001  mc_p.l(entry2.o)
    0x080000c4   0x080000c4   0x00000004   Code   RO         2891    .ARM.Collect$$$$00000004  mc_p.l(entry5.o)
    0x080000c8   0x080000c8   0x00000000   Code   RO         2893    .ARM.Collect$$$$00000008  mc_p.l(entry7b.o)
    0x080000c8   0x080000c8   0x00000000   Code   RO         2895    .ARM.Collect$$$$0000000A  mc_p.l(entry8b.o)
    0x080000c8   0x080000c8   0x00000008   Code   RO         2896    .ARM.Collect$$$$0000000B  mc_p.l(entry9a.o)
    0x080000d0   0x080000d0   0x00000004   Code   RO         2903    .ARM.Collect$$$$0000000E  mc_p.l(entry12b.o)
    0x080000d4   0x080000d4   0x00000000   Code   RO         2898    .ARM.Collect$$$$0000000F  mc_p.l(entry10a.o)
    0x080000d4   0x080000d4   0x00000000   Code   RO         2900    .ARM.Collect$$$$00000011  mc_p.l(entry11a.o)
    0x080000d4   0x080000d4   0x00000004   Code   RO         2889    .ARM.Collect$$$$00002712  mc_p.l(entry2.o)
    0x080000d8   0x080000d8   0x0000001c   Code   RO         2598    .text               startup_mcp1081_keil.o
    0x080000f4   0x080000f4   0x00000024   Code   RO         2607    .text               mc_p.l(memseta.o)
    0x08000118   0x08000118   0x0000007c   Code   RO         2870    .text               mf_p.l(fdiv.o)
    0x08000194   0x08000194   0x00000168   Code   RO         2872    .text               mf_p.l(dadd.o)
    0x080002fc   0x080002fc   0x000000d0   Code   RO         2874    .text               mf_p.l(dmul.o)
    0x080003cc   0x080003cc   0x000000f0   Code   RO         2876    .text               mf_p.l(ddiv.o)
    0x080004bc   0x080004bc   0x0000000e   Code   RO         2878    .text               mf_p.l(ffltui.o)
    0x080004ca   0x080004ca   0x00000002   PAD
    0x080004cc   0x080004cc   0x00000028   Code   RO         2880    .text               mf_p.l(dflti.o)
    0x080004f4   0x080004f4   0x0000001c   Code   RO         2882    .text               mf_p.l(dfltui.o)
    0x08000510   0x08000510   0x00000028   Code   RO         2884    .text               mf_p.l(f2d.o)
    0x08000538   0x08000538   0x00000038   Code   RO         2886    .text               mf_p.l(d2f.o)
    0x08000570   0x08000570   0x00000020   Code   RO         2907    .text               mc_p.l(llshl.o)
    0x08000590   0x08000590   0x00000026   Code   RO         2909    .text               mc_p.l(llsshr.o)
    0x080005b6   0x080005b6   0x00000000   Code   RO         2911    .text               mc_p.l(iusefp.o)
    0x080005b6   0x080005b6   0x00000082   Code   RO         2912    .text               mf_p.l(fepilogue.o)
    0x08000638   0x08000638   0x000000be   Code   RO         2914    .text               mf_p.l(depilogue.o)
    0x080006f6   0x080006f6   0x00000002   PAD
    0x080006f8   0x080006f8   0x00000024   Code   RO         2922    .text               mc_p.l(init.o)
    0x0800071c   0x0800071c   0x00000022   Code   RO         2924    .text               mc_p.l(llushr.o)
    0x0800073e   0x0800073e   0x00000080   Code   RO          337    i.CAP_AFE_Receive   cap_afe.o
    0x080007be   0x080007be   0x0000005a   Code   RO          338    i.CAP_AFE_Transmit  cap_afe.o
    0x08000818   0x08000818   0x00000028   Code   RO          646    i.Cap_Afe_Init      mcp1081.o
    0x08000840   0x08000840   0x0000001a   Code   RO          579    i.Delay_ms          platform.o
    0x0800085a   0x0800085a   0x00000010   Code   RO          581    i.Delay_us          platform.o
    0x0800086a   0x0800086a   0x00000002   PAD
    0x0800086c   0x0800086c   0x00000034   Code   RO          406    i.Flash_Data_Init   data.o
    0x080008a0   0x080008a0   0x00000048   Code   RO          647    i.GPIOI2C_Bus_Init  mcp1081.o
    0x080008e8   0x080008e8   0x00000086   Code   RO         1152    i.GPIO_Init         hal_gpio.o
    0x0800096e   0x0800096e   0x00000020   Code   RO         1153    i.GPIO_PinAFConfig  hal_gpio.o
    0x0800098e   0x0800098e   0x00000010   Code   RO         1161    i.GPIO_StructInit   hal_gpio.o
    0x0800099e   0x0800099e   0x00000002   Code   RO          194    i.HardFault_Handler  mcpxx_it.o
    0x080009a0   0x080009a0   0x000001e4   Code   RO          531    i.I2C1_IRQHandler   iic_slave.o
    0x08000b84   0x08000b84   0x0000003e   Code   RO         1250    i.I2C_ClearITPendingBit  hal_i2c.o
    0x08000bc2   0x08000bc2   0x00000002   PAD
    0x08000bc4   0x08000bc4   0x00000020   Code   RO         1252    i.I2C_DeInit        hal_i2c.o
    0x08000be4   0x08000be4   0x00000022   Code   RO         1256    i.I2C_GetFlagStatus  hal_i2c.o
    0x08000c06   0x08000c06   0x0000000e   Code   RO         1257    i.I2C_GetITStatus   hal_i2c.o
    0x08000c14   0x08000c14   0x0000006c   Code   RO          532    i.I2C_NVIC_SlaveInit  iic_slave.o
    0x08000c80   0x08000c80   0x00000006   Code   RO         1263    i.I2C_ReceiveData   hal_i2c.o
    0x08000c86   0x08000c86   0x00000004   Code   RO         1264    i.I2C_SendData      hal_i2c.o
    0x08000c8a   0x08000c8a   0x0000000e   Code   RO         1265    i.I2C_SlaveAddressConfig  hal_i2c.o
    0x08000c98   0x08000c98   0x00000058   Code   RO          533    i.I2C_SlaveMode     iic_slave.o
    0x08000cf0   0x08000cf0   0x00000022   Code   RO          339    i.I2C_Start         cap_afe.o
    0x08000d12   0x08000d12   0x00000026   Code   RO          340    i.I2C_Stop          cap_afe.o
    0x08000d38   0x08000d38   0x00000014   Code   RO         1268    i.I2C_StructInit    hal_i2c.o
    0x08000d4c   0x08000d4c   0x0000005c   Code   RO          341    i.I2C_master_read   cap_afe.o
    0x08000da8   0x08000da8   0x0000005c   Code   RO          342    i.I2C_master_write  cap_afe.o
    0x08000e04   0x08000e04   0x0000002e   Code   RO          343    i.I2C_reStart       cap_afe.o
    0x08000e32   0x08000e32   0x00000002   PAD
    0x08000e34   0x08000e34   0x00000020   Code   RO            4    i.IIC_Instructions  main.o
    0x08000e54   0x08000e54   0x000001c8   Code   RO          648    i.MCP1081_OSC2_Measure  mcp1081.o
    0x0800101c   0x0800101c   0x00000088   Code   RO          649    i.MCP1081_T_Measure  mcp1081.o
    0x080010a4   0x080010a4   0x00000012   Code   RO          407    i.MYFLASH_ReadPara  data.o
    0x080010b6   0x080010b6   0x00000036   Code   RO          409    i.MY_I2C_CRC8       data.o
    0x080010ec   0x080010ec   0x00000002   Code   RO          195    i.NMI_Handler       mcpxx_it.o
    0x080010ee   0x080010ee   0x00000002   PAD
    0x080010f0   0x080010f0   0x00000050   Code   RO         1492    i.NVIC_Init         hal_misc.o
    0x08001140   0x08001140   0x00000002   Code   RO          196    i.PendSV_Handler    mcpxx_it.o
    0x08001142   0x08001142   0x00000002   PAD
    0x08001144   0x08001144   0x0000001c   Code   RO         1574    i.RCC_AHBPeriphClockCmd  hal_rcc.o
    0x08001160   0x08001160   0x0000001c   Code   RO         1576    i.RCC_APB1PeriphClockCmd  hal_rcc.o
    0x0800117c   0x0800117c   0x0000001c   Code   RO         1577    i.RCC_APB1PeriphResetCmd  hal_rcc.o
    0x08001198   0x08001198   0x00000086   Code   RO          344    i.Registers_Init    cap_afe.o
    0x0800121e   0x0800121e   0x00000002   Code   RO          197    i.SVC_Handler       mcpxx_it.o
    0x08001220   0x08001220   0x000000e0   Code   RO         2557    i.SetSysClockToDefine  system_mcp1081.o
    0x08001300   0x08001300   0x00000014   Code   RO          198    i.SysTick_Handler   mcpxx_it.o
    0x08001314   0x08001314   0x00000038   Code   RO         2558    i.SystemInit        system_mcp1081.o
    0x0800134c   0x0800134c   0x0000002e   Code   RO         2916    i.__ARM_clz         mf_p.l(depilogue.o)
    0x0800137a   0x0800137a   0x0000000e   Code   RO         2928    i.__scatterload_copy  mc_p.l(handlers.o)
    0x08001388   0x08001388   0x00000002   Code   RO         2929    i.__scatterload_null  mc_p.l(handlers.o)
    0x0800138a   0x0800138a   0x0000000e   Code   RO         2930    i.__scatterload_zeroinit  mc_p.l(handlers.o)
    0x08001398   0x08001398   0x00000018   Code   RO          585    i.is_timeout        platform.o
    0x080013b0   0x080013b0   0x0000008c   Code   RO            6    i.main              main.o
    0x0800143c   0x0800143c   0x00000020   Code   RO          586    i.set_timeout_usec  platform.o
    0x0800145c   0x0800145c   0x00000020   Data   RO         2926    Region$$Table       anon$$obj.o


    Execution Region RW_IRAM1 (Exec base: 0x20000000, Load base: 0x0800147c, Size: 0x00000320, Max: 0x00000800, ABSOLUTE)

    Exec Addr    Load Addr    Size         Type   Attr      Idx    E Section Name        Object

    0x20000000   0x0800147c   0x00000003   Data   RW            8    .data               main.o
    0x20000003   0x0800147f   0x00000096   Data   RW          411    .data               data.o
    0x20000099   0x08001515   0x00000014   Data   RW          412    .data               data.o
    0x200000ad   0x08001529   0x00000001   PAD
    0x200000ae   0x0800152a   0x00000008   Data   RW          537    .data               iic_slave.o
    0x200000b6   0x08001532   0x00000002   PAD
    0x200000b8   0x08001534   0x00000004   Data   RW          587    .data               platform.o
    0x200000bc   0x08001538   0x00000004   Data   RW         2559    .data               system_mcp1081.o
    0x200000c0        -       0x00000048   Zero   RW            7    .bss                main.o
    0x20000108        -       0x00000014   Zero   RW          534    .bss                iic_slave.o
    0x2000011c   0x0800153c   0x00000004   PAD
    0x20000120        -       0x00000200   Zero   RW         2595    STACK               startup_mcp1081_keil.o


==============================================================================

Image component sizes


      Code (inc. data)   RO Data    RW Data    ZI Data      Debug   Object Name

       654          0          0          0          0      11516   cap_afe.o
       124         10          0        170          0       2549   data.o
       182          0          0          0          0       2573   hal_gpio.o
       186         10          0          0          0       5174   hal_i2c.o
        80          8          0          0          0        992   hal_misc.o
        84         18          0          0          0       1826   hal_rcc.o
       680         44          0          8         20       3089   iic_slave.o
       172         24          0          3         72      65972   main.o
       704         34          0          0          0       3453   mcp1081.o
        28          4          0          0          0       2095   mcpxx_it.o
        98         10          0          4          0       2804   platform.o
        28          8        192          0        512        720   startup_mcp1081_keil.o
       280         32          0          4          0       3107   system_mcp1081.o

    ----------------------------------------------------------------------
      3310        202        224        192        608     105870   Object Totals
         0          0         32          0          0          0   (incl. Generated)
        10          0          0          3          4          0   (incl. Padding)

    ----------------------------------------------------------------------

      Code (inc. data)   RO Data    RW Data    ZI Data      Debug   Library Member Name

         0          0          0          0          0          0   entry.o
         0          0          0          0          0          0   entry10a.o
         0          0          0          0          0          0   entry11a.o
         4          0          0          0          0          0   entry12b.o
         8          4          0          0          0          0   entry2.o
         4          0          0          0          0          0   entry5.o
         0          0          0          0          0          0   entry7b.o
         0          0          0          0          0          0   entry8b.o
         8          4          0          0          0          0   entry9a.o
        30          0          0          0          0          0   handlers.o
        36          8          0          0          0         68   init.o
         0          0          0          0          0          0   iusefp.o
        32          0          0          0          0         68   llshl.o
        38          0          0          0          0         68   llsshr.o
        34          0          0          0          0         68   llushr.o
        36          0          0          0          0        100   memseta.o
        56          0          0          0          0         68   d2f.o
       360          6          0          0          0        140   dadd.o
       240          6          0          0          0         84   ddiv.o
       236          0          0          0          0        216   depilogue.o
        40          6          0          0          0         68   dflti.o
        28          4          0          0          0         68   dfltui.o
       208          6          0          0          0         88   dmul.o
        40          0          0          0          0         60   f2d.o
       124          0          0          0          0         72   fdiv.o
       130          0          0          0          0        144   fepilogue.o
        14          0          0          0          0         68   ffltui.o

    ----------------------------------------------------------------------
      1710         44          0          0          0       1448   Library Totals
         4          0          0          0          0          0   (incl. Padding)

    ----------------------------------------------------------------------

      Code (inc. data)   RO Data    RW Data    ZI Data      Debug   Library Name

       230         16          0          0          0        372   mc_p.l
      1476         28          0          0          0       1076   mf_p.l

    ----------------------------------------------------------------------
      1710         44          0          0          0       1448   Library Totals

    ----------------------------------------------------------------------

==============================================================================


      Code (inc. data)   RO Data    RW Data    ZI Data      Debug   

      5020        246        224        192        608     104962   Grand Totals
      5020        246        224        192        608     104962   ELF Image Totals
      5020        246        224        192          0          0   ROM Totals

==============================================================================

    Total RO  Size (Code + RO Data)                 5244 (   5.12kB)
    Total RW  Size (RW Data + ZI Data)               800 (   0.78kB)
    Total ROM Size (Code + RO Data + RW Data)       5436 (   5.31kB)

==============================================================================

