


ARM Macro Assembler    Page 1 


    1 00000000 00000200 
                       Stack_Size
                               EQU              0x00000200
    2 00000000         
    3 00000000                 AREA             STACK, NOINIT, READWRITE, ALIGN
=3
    4 00000000         Stack_Mem
                               SPACE            Stack_Size
    5 00000200         __initial_sp
    6 00000200         
    7 00000200         
    8 00000200 00000000 
                       Heap_Size
                               EQU              0x00000000
    9 00000200         
   10 00000200                 AREA             HEAP, NOINIT, READWRITE, ALIGN=
3
   11 00000000         __heap_base
   12 00000000         Heap_Mem
                               SPACE            Heap_Size
   13 00000000         __heap_limit
   14 00000000         
   15 00000000                 PRESERVE8
   16 00000000                 THUMB
   17 00000000         
   18 00000000         
   19 00000000         ; Vector Table Mapped to Address 0 at Reset
   20 00000000                 AREA             RESET, DATA, READONLY
   21 00000000                 EXPORT           __Vectors
   22 00000000                 EXPORT           __Vectors_End
   23 00000000                 EXPORT           __Vectors_Size
   24 00000000         
   25 00000000 00000000 
                       __Vectors
                               DCD              __initial_sp ;       Top of Sta
                                                            ck
   26 00000004 00000000        DCD              Reset_Handler ;       Reset Han
                                                            dler
   27 00000008 00000000        DCD              NMI_Handler ; -14   NMI Handler
                                                            
   28 0000000C 00000000        DCD              HardFault_Handler ; -13   Hard 
                                                            Fault Handler
   29 00000010 00000000        DCD              0           ; -12   Reserved
   30 00000014 00000000        DCD              0           ; -11   Reserved
   31 00000018 00000000        DCD              0           ; -10   Reserved
   32 0000001C 00000000        DCD              0           ;  -9   Reserved
   33 00000020 00000000        DCD              0           ;  -8   Reserved
   34 00000024 00000000        DCD              0           ;  -7   Reserved
   35 00000028 00000000        DCD              0           ;  -6   Reserved
   36 0000002C 00000000        DCD              SVC_Handler ;  -5   SVCall Hand
                                                            ler
   37 00000030 00000000        DCD              0           ;  -4   Reserved
   38 00000034 00000000        DCD              0           ;  -3   Reserved
   39 00000038 00000000        DCD              PendSV_Handler ;  -2   PendSV H
                                                            andler
   40 0000003C 00000000        DCD              SysTick_Handler ;  -1   SysTick
                                                             Handler
   41 00000040         
   42 00000040         ; External



ARM Macro Assembler    Page 2 


   43 00000040 00000000        DCD              IWDG_IRQHandler ;   0   Indepen
                                                            dent WatchDog
   44 00000044 00000000        DCD              PVD_IRQHandler ;   1   PVD thro
                                                            ugh EXTI Line detec
                                                            t
   45 00000048 00000000        DCD              0           ;   2   Reserved
   46 0000004C 00000000        DCD              FLASH_IRQHandler ;   3   FLASH
   47 00000050 00000000        DCD              RCC_IRQHandler ;   4   RCC
   48 00000054 00000000        DCD              EXTI0_1_IRQHandler ;   5   EXTI
                                                             Line 0 and 1
   49 00000058 00000000        DCD              EXTI2_3_IRQHandler ;   6   EXTI
                                                             Line 2 and 3
   50 0000005C 00000000        DCD              EXTI4_15_IRQHandler ;   7   EXT
                                                            I Line 4 to 15
   51 00000060 00000000        DCD              0           ;   8   Reserved
   52 00000064 00000000        DCD              0           ;   9   Reserved
   53 00000068 00000000        DCD              0           ;  10   Reserved
   54 0000006C 00000000        DCD              0           ;  11   Reserved
   55 00000070 00000000        DCD              ADC_IRQHandler ;  12   ADC
   56 00000074 00000000        DCD              TIM1_BRK_UP_TRG_COM_IRQHandler 
                                                            ;  13   TIM1 Break,
                                                             Update, Trigger an
                                                            d Commutation
   57 00000078 00000000        DCD              TIM1_CC_IRQHandler ;  14   TIM1
                                                             Capture Compare
   58 0000007C 00000000        DCD              0           ;  15   Reserved
   59 00000080 00000000        DCD              TIM3_IRQHandler ;  16   TIM3
   60 00000084 00000000        DCD              0           ;  17   Reserved
   61 00000088 00000000        DCD              0           ;  18   Reserved
   62 0000008C 00000000        DCD              TIM14_IRQHandler ;  19   TIM14
   63 00000090 00000000        DCD              0           ;  20   Reserved
   64 00000094 00000000        DCD              0           ;  21   Reserved
   65 00000098 00000000        DCD              0           ;  22   Reserved
   66 0000009C 00000000        DCD              I2C1_IRQHandler ;  23   I2C1
   67 000000A0 00000000        DCD              0           ;  24   Reserved
   68 000000A4 00000000        DCD              SPI1_IRQHandler ;  25   SPI1
   69 000000A8 00000000        DCD              0           ;  26   Reserved
   70 000000AC 00000000        DCD              USART1_IRQHandler 
                                                            ;  27   USART1
   71 000000B0 00000000        DCD              USART2_IRQHandler 
                                                            ;  28   USART2
   72 000000B4 00000000        DCD              0           ;  29   Reserved
   73 000000B8 00000000        DCD              0           ;  30   Reserved
   74 000000BC 00000000        DCD              0           ;  31   Reserved
   75 000000C0         
   76 000000C0         __Vectors_End
   77 000000C0 000000C0 
                       __Vectors_Size
                               EQU              __Vectors_End - __Vectors
   78 000000C0         
   79 000000C0                 AREA             |.text|, CODE, READONLY
   80 00000000         
   81 00000000         ; Reset handler
   82 00000000         Reset_Handler
                               PROC
   83 00000000                 EXPORT           Reset_Handler                  
[WEAK]
   84 00000000                 IMPORT           __main
   85 00000000                 IMPORT           SystemInit



ARM Macro Assembler    Page 3 


   86 00000000 4804            LDR              R0, =SystemInit
   87 00000002 4780            BLX              R0
   88 00000004 4804            LDR              R0, =__main
   89 00000006 4700            BX               R0
   90 00000008                 ENDP
   91 00000008         
   92 00000008         ; Dummy Exception Handlers (infinite loops which can be 
                       modified)
   93 00000008         
   94 00000008         NMI_Handler
                               PROC
   95 00000008                 EXPORT           NMI_Handler                    
[WEAK]
   96 00000008 E7FE            B                .
   97 0000000A                 ENDP
   99 0000000A         HardFault_Handler
                               PROC
  100 0000000A                 EXPORT           HardFault_Handler              
[WEAK]
  101 0000000A E7FE            B                .
  102 0000000C                 ENDP
  103 0000000C         SVC_Handler
                               PROC
  104 0000000C                 EXPORT           SVC_Handler                    
[WEAK]
  105 0000000C E7FE            B                .
  106 0000000E                 ENDP
  107 0000000E         PendSV_Handler
                               PROC
  108 0000000E                 EXPORT           PendSV_Handler                 
[WEAK]
  109 0000000E E7FE            B                .
  110 00000010                 ENDP
  111 00000010         SysTick_Handler
                               PROC
  112 00000010                 EXPORT           SysTick_Handler                
[WEAK]
  113 00000010 E7FE            B                .
  114 00000012                 ENDP
  115 00000012         
  116 00000012         Default_Handler
                               PROC
  117 00000012         
  118 00000012                 EXPORT           IWDG_IRQHandler                
[WEAK]
  119 00000012                 EXPORT           PVD_IRQHandler                 
[WEAK]
  120 00000012         
  121 00000012                 EXPORT           FLASH_IRQHandler               
[WEAK]
  122 00000012                 EXPORT           RCC_IRQHandler                 
[WEAK]
  123 00000012                 EXPORT           EXTI0_1_IRQHandler             
[WEAK]
  124 00000012                 EXPORT           EXTI2_3_IRQHandler             
[WEAK]
  125 00000012                 EXPORT           EXTI4_15_IRQHandler            
[WEAK]
  126 00000012                 EXPORT           ADC_IRQHandler                 



ARM Macro Assembler    Page 4 


[WEAK]
  127 00000012                 EXPORT           TIM1_BRK_UP_TRG_COM_IRQHandler 
[WEAK]
  128 00000012                 EXPORT           TIM1_CC_IRQHandler             
[WEAK]
  129 00000012                 EXPORT           TIM3_IRQHandler                
[WEAK]
  130 00000012                 EXPORT           TIM14_IRQHandler               
[WEAK]
  131 00000012                 EXPORT           I2C1_IRQHandler                
[WEAK]
  132 00000012                 EXPORT           SPI1_IRQHandler                
[WEAK]
  133 00000012                 EXPORT           USART1_IRQHandler              
[WEAK]
  134 00000012                 EXPORT           USART2_IRQHandler              
[WEAK]
  135 00000012         
  136 00000012         IWDG_IRQHandler
  137 00000012         PVD_IRQHandler
  138 00000012         FLASH_IRQHandler
  139 00000012         RCC_IRQHandler
  140 00000012         EXTI0_1_IRQHandler
  141 00000012         EXTI2_3_IRQHandler
  142 00000012         EXTI4_15_IRQHandler
  143 00000012         ADC_IRQHandler
  144 00000012         TIM1_BRK_UP_TRG_COM_IRQHandler
  145 00000012         TIM1_CC_IRQHandler
  146 00000012         TIM3_IRQHandler
  147 00000012         TIM14_IRQHandler
  148 00000012         I2C1_IRQHandler
  149 00000012         SPI1_IRQHandler
  150 00000012         USART1_IRQHandler
  151 00000012         USART2_IRQHandler
  152 00000012         
  153 00000012 E7FE            B                .
  154 00000014         
  155 00000014                 ENDP
  156 00000014         
  157 00000014                 ALIGN
  158 00000014         
  159 00000014         ;*******************************************************
                       ************************
  160 00000014         ; User Stack and Heap initialization
  161 00000014         ;*******************************************************
                       ************************
  162 00000014                 IF               :DEF:__MICROLIB
  163 00000014         
  164 00000014                 EXPORT           __initial_sp
  165 00000014                 EXPORT           __heap_base
  166 00000014                 EXPORT           __heap_limit
  167 00000014         
  168 00000014                 ELSE
  183                          ENDIF
  184 00000014                 END
              00000000 
              00000000 
Command Line: --debug --xref --diag_suppress=9931 --cpu=Cortex-M0 --apcs=interw
ork --depend=.\objects\startup_mcp1081_keil.d -o.\objects\startup_mcp1081_keil.



ARM Macro Assembler    Page 5 


o --predefine="__MICROLIB SETA 1" --predefine="__UVISION_VERSION SETA 538" --li
st=.\listings\startup_mcp1081_keil.lst ..\..\..\..\Device\MCP1081\Source\KEIL_S
tartAsm\startup_mcp1081_keil.s



ARM Macro Assembler    Page 1 Alphabetic symbol ordering
Relocatable symbols

STACK 00000000

Symbol: STACK
   Definitions
      At line 3 in file ..\..\..\..\Device\MCP1081\Source\KEIL_StartAsm\startup
_mcp1081_keil.s
   Uses
      None
Comment: STACK unused
Stack_Mem 00000000

Symbol: Stack_Mem
   Definitions
      At line 4 in file ..\..\..\..\Device\MCP1081\Source\KEIL_StartAsm\startup
_mcp1081_keil.s
   Uses
      None
Comment: Stack_Mem unused
__initial_sp 00000200

Symbol: __initial_sp
   Definitions
      At line 5 in file ..\..\..\..\Device\MCP1081\Source\KEIL_StartAsm\startup
_mcp1081_keil.s
   Uses
      At line 25 in file ..\..\..\..\Device\MCP1081\Source\KEIL_StartAsm\startu
p_mcp1081_keil.s
      At line 164 in file ..\..\..\..\Device\MCP1081\Source\KEIL_StartAsm\start
up_mcp1081_keil.s

3 symbols



ARM Macro Assembler    Page 1 Alphabetic symbol ordering
Relocatable symbols

HEAP 00000000

Symbol: HEAP
   Definitions
      At line 10 in file ..\..\..\..\Device\MCP1081\Source\KEIL_StartAsm\startu
p_mcp1081_keil.s
   Uses
      None
Comment: HEAP unused
Heap_Mem 00000000

Symbol: Heap_Mem
   Definitions
      At line 12 in file ..\..\..\..\Device\MCP1081\Source\KEIL_StartAsm\startu
p_mcp1081_keil.s
   Uses
      None
Comment: Heap_Mem unused
__heap_base 00000000

Symbol: __heap_base
   Definitions
      At line 11 in file ..\..\..\..\Device\MCP1081\Source\KEIL_StartAsm\startu
p_mcp1081_keil.s
   Uses
      At line 165 in file ..\..\..\..\Device\MCP1081\Source\KEIL_StartAsm\start
up_mcp1081_keil.s
Comment: __heap_base used once
__heap_limit 00000000

Symbol: __heap_limit
   Definitions
      At line 13 in file ..\..\..\..\Device\MCP1081\Source\KEIL_StartAsm\startu
p_mcp1081_keil.s
   Uses
      At line 166 in file ..\..\..\..\Device\MCP1081\Source\KEIL_StartAsm\start
up_mcp1081_keil.s
Comment: __heap_limit used once
4 symbols



ARM Macro Assembler    Page 1 Alphabetic symbol ordering
Relocatable symbols

RESET 00000000

Symbol: RESET
   Definitions
      At line 20 in file ..\..\..\..\Device\MCP1081\Source\KEIL_StartAsm\startu
p_mcp1081_keil.s
   Uses
      None
Comment: RESET unused
__Vectors 00000000

Symbol: __Vectors
   Definitions
      At line 25 in file ..\..\..\..\Device\MCP1081\Source\KEIL_StartAsm\startu
p_mcp1081_keil.s
   Uses
      At line 21 in file ..\..\..\..\Device\MCP1081\Source\KEIL_StartAsm\startu
p_mcp1081_keil.s
      At line 77 in file ..\..\..\..\Device\MCP1081\Source\KEIL_StartAsm\startu
p_mcp1081_keil.s

__Vectors_End 000000C0

Symbol: __Vectors_End
   Definitions
      At line 76 in file ..\..\..\..\Device\MCP1081\Source\KEIL_StartAsm\startu
p_mcp1081_keil.s
   Uses
      At line 22 in file ..\..\..\..\Device\MCP1081\Source\KEIL_StartAsm\startu
p_mcp1081_keil.s
      At line 77 in file ..\..\..\..\Device\MCP1081\Source\KEIL_StartAsm\startu
p_mcp1081_keil.s

3 symbols



ARM Macro Assembler    Page 1 Alphabetic symbol ordering
Relocatable symbols

.text 00000000

Symbol: .text
   Definitions
      At line 79 in file ..\..\..\..\Device\MCP1081\Source\KEIL_StartAsm\startu
p_mcp1081_keil.s
   Uses
      None
Comment: .text unused
ADC_IRQHandler 00000012

Symbol: ADC_IRQHandler
   Definitions
      At line 143 in file ..\..\..\..\Device\MCP1081\Source\KEIL_StartAsm\start
up_mcp1081_keil.s
   Uses
      At line 55 in file ..\..\..\..\Device\MCP1081\Source\KEIL_StartAsm\startu
p_mcp1081_keil.s
      At line 126 in file ..\..\..\..\Device\MCP1081\Source\KEIL_StartAsm\start
up_mcp1081_keil.s

Default_Handler 00000012

Symbol: Default_Handler
   Definitions
      At line 116 in file ..\..\..\..\Device\MCP1081\Source\KEIL_StartAsm\start
up_mcp1081_keil.s
   Uses
      None
Comment: Default_Handler unused
EXTI0_1_IRQHandler 00000012

Symbol: EXTI0_1_IRQHandler
   Definitions
      At line 140 in file ..\..\..\..\Device\MCP1081\Source\KEIL_StartAsm\start
up_mcp1081_keil.s
   Uses
      At line 48 in file ..\..\..\..\Device\MCP1081\Source\KEIL_StartAsm\startu
p_mcp1081_keil.s
      At line 123 in file ..\..\..\..\Device\MCP1081\Source\KEIL_StartAsm\start
up_mcp1081_keil.s

EXTI2_3_IRQHandler 00000012

Symbol: EXTI2_3_IRQHandler
   Definitions
      At line 141 in file ..\..\..\..\Device\MCP1081\Source\KEIL_StartAsm\start
up_mcp1081_keil.s
   Uses
      At line 49 in file ..\..\..\..\Device\MCP1081\Source\KEIL_StartAsm\startu
p_mcp1081_keil.s
      At line 124 in file ..\..\..\..\Device\MCP1081\Source\KEIL_StartAsm\start
up_mcp1081_keil.s

EXTI4_15_IRQHandler 00000012

Symbol: EXTI4_15_IRQHandler
   Definitions
      At line 142 in file ..\..\..\..\Device\MCP1081\Source\KEIL_StartAsm\start



ARM Macro Assembler    Page 2 Alphabetic symbol ordering
Relocatable symbols

up_mcp1081_keil.s
   Uses
      At line 50 in file ..\..\..\..\Device\MCP1081\Source\KEIL_StartAsm\startu
p_mcp1081_keil.s
      At line 125 in file ..\..\..\..\Device\MCP1081\Source\KEIL_StartAsm\start
up_mcp1081_keil.s

FLASH_IRQHandler 00000012

Symbol: FLASH_IRQHandler
   Definitions
      At line 138 in file ..\..\..\..\Device\MCP1081\Source\KEIL_StartAsm\start
up_mcp1081_keil.s
   Uses
      At line 46 in file ..\..\..\..\Device\MCP1081\Source\KEIL_StartAsm\startu
p_mcp1081_keil.s
      At line 121 in file ..\..\..\..\Device\MCP1081\Source\KEIL_StartAsm\start
up_mcp1081_keil.s

HardFault_Handler 0000000A

Symbol: HardFault_Handler
   Definitions
      At line 99 in file ..\..\..\..\Device\MCP1081\Source\KEIL_StartAsm\startu
p_mcp1081_keil.s
   Uses
      At line 28 in file ..\..\..\..\Device\MCP1081\Source\KEIL_StartAsm\startu
p_mcp1081_keil.s
      At line 100 in file ..\..\..\..\Device\MCP1081\Source\KEIL_StartAsm\start
up_mcp1081_keil.s

I2C1_IRQHandler 00000012

Symbol: I2C1_IRQHandler
   Definitions
      At line 148 in file ..\..\..\..\Device\MCP1081\Source\KEIL_StartAsm\start
up_mcp1081_keil.s
   Uses
      At line 66 in file ..\..\..\..\Device\MCP1081\Source\KEIL_StartAsm\startu
p_mcp1081_keil.s
      At line 131 in file ..\..\..\..\Device\MCP1081\Source\KEIL_StartAsm\start
up_mcp1081_keil.s

IWDG_IRQHandler 00000012

Symbol: IWDG_IRQHandler
   Definitions
      At line 136 in file ..\..\..\..\Device\MCP1081\Source\KEIL_StartAsm\start
up_mcp1081_keil.s
   Uses
      At line 43 in file ..\..\..\..\Device\MCP1081\Source\KEIL_StartAsm\startu
p_mcp1081_keil.s
      At line 118 in file ..\..\..\..\Device\MCP1081\Source\KEIL_StartAsm\start
up_mcp1081_keil.s

NMI_Handler 00000008

Symbol: NMI_Handler
   Definitions



ARM Macro Assembler    Page 3 Alphabetic symbol ordering
Relocatable symbols

      At line 94 in file ..\..\..\..\Device\MCP1081\Source\KEIL_StartAsm\startu
p_mcp1081_keil.s
   Uses
      At line 27 in file ..\..\..\..\Device\MCP1081\Source\KEIL_StartAsm\startu
p_mcp1081_keil.s
      At line 95 in file ..\..\..\..\Device\MCP1081\Source\KEIL_StartAsm\startu
p_mcp1081_keil.s

PVD_IRQHandler 00000012

Symbol: PVD_IRQHandler
   Definitions
      At line 137 in file ..\..\..\..\Device\MCP1081\Source\KEIL_StartAsm\start
up_mcp1081_keil.s
   Uses
      At line 44 in file ..\..\..\..\Device\MCP1081\Source\KEIL_StartAsm\startu
p_mcp1081_keil.s
      At line 119 in file ..\..\..\..\Device\MCP1081\Source\KEIL_StartAsm\start
up_mcp1081_keil.s

PendSV_Handler 0000000E

Symbol: PendSV_Handler
   Definitions
      At line 107 in file ..\..\..\..\Device\MCP1081\Source\KEIL_StartAsm\start
up_mcp1081_keil.s
   Uses
      At line 39 in file ..\..\..\..\Device\MCP1081\Source\KEIL_StartAsm\startu
p_mcp1081_keil.s
      At line 108 in file ..\..\..\..\Device\MCP1081\Source\KEIL_StartAsm\start
up_mcp1081_keil.s

RCC_IRQHandler 00000012

Symbol: RCC_IRQHandler
   Definitions
      At line 139 in file ..\..\..\..\Device\MCP1081\Source\KEIL_StartAsm\start
up_mcp1081_keil.s
   Uses
      At line 47 in file ..\..\..\..\Device\MCP1081\Source\KEIL_StartAsm\startu
p_mcp1081_keil.s
      At line 122 in file ..\..\..\..\Device\MCP1081\Source\KEIL_StartAsm\start
up_mcp1081_keil.s

Reset_Handler 00000000

Symbol: Reset_Handler
   Definitions
      At line 82 in file ..\..\..\..\Device\MCP1081\Source\KEIL_StartAsm\startu
p_mcp1081_keil.s
   Uses
      At line 26 in file ..\..\..\..\Device\MCP1081\Source\KEIL_StartAsm\startu
p_mcp1081_keil.s
      At line 83 in file ..\..\..\..\Device\MCP1081\Source\KEIL_StartAsm\startu
p_mcp1081_keil.s

SPI1_IRQHandler 00000012

Symbol: SPI1_IRQHandler



ARM Macro Assembler    Page 4 Alphabetic symbol ordering
Relocatable symbols

   Definitions
      At line 149 in file ..\..\..\..\Device\MCP1081\Source\KEIL_StartAsm\start
up_mcp1081_keil.s
   Uses
      At line 68 in file ..\..\..\..\Device\MCP1081\Source\KEIL_StartAsm\startu
p_mcp1081_keil.s
      At line 132 in file ..\..\..\..\Device\MCP1081\Source\KEIL_StartAsm\start
up_mcp1081_keil.s

SVC_Handler 0000000C

Symbol: SVC_Handler
   Definitions
      At line 103 in file ..\..\..\..\Device\MCP1081\Source\KEIL_StartAsm\start
up_mcp1081_keil.s
   Uses
      At line 36 in file ..\..\..\..\Device\MCP1081\Source\KEIL_StartAsm\startu
p_mcp1081_keil.s
      At line 104 in file ..\..\..\..\Device\MCP1081\Source\KEIL_StartAsm\start
up_mcp1081_keil.s

SysTick_Handler 00000010

Symbol: SysTick_Handler
   Definitions
      At line 111 in file ..\..\..\..\Device\MCP1081\Source\KEIL_StartAsm\start
up_mcp1081_keil.s
   Uses
      At line 40 in file ..\..\..\..\Device\MCP1081\Source\KEIL_StartAsm\startu
p_mcp1081_keil.s
      At line 112 in file ..\..\..\..\Device\MCP1081\Source\KEIL_StartAsm\start
up_mcp1081_keil.s

TIM14_IRQHandler 00000012

Symbol: TIM14_IRQHandler
   Definitions
      At line 147 in file ..\..\..\..\Device\MCP1081\Source\KEIL_StartAsm\start
up_mcp1081_keil.s
   Uses
      At line 62 in file ..\..\..\..\Device\MCP1081\Source\KEIL_StartAsm\startu
p_mcp1081_keil.s
      At line 130 in file ..\..\..\..\Device\MCP1081\Source\KEIL_StartAsm\start
up_mcp1081_keil.s

TIM1_BRK_UP_TRG_COM_IRQHandler 00000012

Symbol: TIM1_BRK_UP_TRG_COM_IRQHandler
   Definitions
      At line 144 in file ..\..\..\..\Device\MCP1081\Source\KEIL_StartAsm\start
up_mcp1081_keil.s
   Uses
      At line 56 in file ..\..\..\..\Device\MCP1081\Source\KEIL_StartAsm\startu
p_mcp1081_keil.s
      At line 127 in file ..\..\..\..\Device\MCP1081\Source\KEIL_StartAsm\start
up_mcp1081_keil.s

TIM1_CC_IRQHandler 00000012




ARM Macro Assembler    Page 5 Alphabetic symbol ordering
Relocatable symbols

Symbol: TIM1_CC_IRQHandler
   Definitions
      At line 145 in file ..\..\..\..\Device\MCP1081\Source\KEIL_StartAsm\start
up_mcp1081_keil.s
   Uses
      At line 57 in file ..\..\..\..\Device\MCP1081\Source\KEIL_StartAsm\startu
p_mcp1081_keil.s
      At line 128 in file ..\..\..\..\Device\MCP1081\Source\KEIL_StartAsm\start
up_mcp1081_keil.s

TIM3_IRQHandler 00000012

Symbol: TIM3_IRQHandler
   Definitions
      At line 146 in file ..\..\..\..\Device\MCP1081\Source\KEIL_StartAsm\start
up_mcp1081_keil.s
   Uses
      At line 59 in file ..\..\..\..\Device\MCP1081\Source\KEIL_StartAsm\startu
p_mcp1081_keil.s
      At line 129 in file ..\..\..\..\Device\MCP1081\Source\KEIL_StartAsm\start
up_mcp1081_keil.s

USART1_IRQHandler 00000012

Symbol: USART1_IRQHandler
   Definitions
      At line 150 in file ..\..\..\..\Device\MCP1081\Source\KEIL_StartAsm\start
up_mcp1081_keil.s
   Uses
      At line 70 in file ..\..\..\..\Device\MCP1081\Source\KEIL_StartAsm\startu
p_mcp1081_keil.s
      At line 133 in file ..\..\..\..\Device\MCP1081\Source\KEIL_StartAsm\start
up_mcp1081_keil.s

USART2_IRQHandler 00000012

Symbol: USART2_IRQHandler
   Definitions
      At line 151 in file ..\..\..\..\Device\MCP1081\Source\KEIL_StartAsm\start
up_mcp1081_keil.s
   Uses
      At line 71 in file ..\..\..\..\Device\MCP1081\Source\KEIL_StartAsm\startu
p_mcp1081_keil.s
      At line 134 in file ..\..\..\..\Device\MCP1081\Source\KEIL_StartAsm\start
up_mcp1081_keil.s

24 symbols



ARM Macro Assembler    Page 1 Alphabetic symbol ordering
Absolute symbols

Heap_Size 00000000

Symbol: Heap_Size
   Definitions
      At line 8 in file ..\..\..\..\Device\MCP1081\Source\KEIL_StartAsm\startup
_mcp1081_keil.s
   Uses
      At line 12 in file ..\..\..\..\Device\MCP1081\Source\KEIL_StartAsm\startu
p_mcp1081_keil.s
Comment: Heap_Size used once
Stack_Size 00000200

Symbol: Stack_Size
   Definitions
      At line 1 in file ..\..\..\..\Device\MCP1081\Source\KEIL_StartAsm\startup
_mcp1081_keil.s
   Uses
      At line 4 in file ..\..\..\..\Device\MCP1081\Source\KEIL_StartAsm\startup
_mcp1081_keil.s
Comment: Stack_Size used once
__Vectors_Size 000000C0

Symbol: __Vectors_Size
   Definitions
      At line 77 in file ..\..\..\..\Device\MCP1081\Source\KEIL_StartAsm\startu
p_mcp1081_keil.s
   Uses
      At line 23 in file ..\..\..\..\Device\MCP1081\Source\KEIL_StartAsm\startu
p_mcp1081_keil.s
Comment: __Vectors_Size used once
3 symbols



ARM Macro Assembler    Page 1 Alphabetic symbol ordering
External symbols

SystemInit 00000000

Symbol: SystemInit
   Definitions
      At line 85 in file ..\..\..\..\Device\MCP1081\Source\KEIL_StartAsm\startu
p_mcp1081_keil.s
   Uses
      At line 86 in file ..\..\..\..\Device\MCP1081\Source\KEIL_StartAsm\startu
p_mcp1081_keil.s
Comment: SystemInit used once
__main 00000000

Symbol: __main
   Definitions
      At line 84 in file ..\..\..\..\Device\MCP1081\Source\KEIL_StartAsm\startu
p_mcp1081_keil.s
   Uses
      At line 88 in file ..\..\..\..\Device\MCP1081\Source\KEIL_StartAsm\startu
p_mcp1081_keil.s
Comment: __main used once
2 symbols
373 symbols in table
