:020000040800F2
:1000000020030020D9000008ED1000089F09000817
:1000100000000000000000000000000000000000E0
:100020000000000000000000000000001F12000897
:10003000000000000000000041110008011300084A
:10004000EB000008EB00000800000000EB000008D7
:10005000EB000008EB000008EB000008EB000008D4
:100060000000000000000000000000000000000090
:10007000EB000008EB000008EB00000800000000A7
:10008000EB0000080000000000000000EB0000088A
:10009000000000000000000000000000A1090008AE
:1000A00000000000EB00000800000000EB0000086A
:1000B000EB0000080000000000000000000000004D
:1000C0000448854600F018FB00480047B1130008BB
:1000D000C046C0462003002004488047044800472B
:1000E000FEE7FEE7FEE7FEE7FEE7FEE71513000882
:1000F000C1000008D2B201E00270401C491EFBD2D0
:1001000070470022F6E710B513460A460446194622
:10011000FFF7F0FF204610BD70B502464A40D50FEC
:1001200040004A00ED0740085208002814D0002A79
:1001300012D0C40DD30D41020120C0055202490A5C
:10014000520AE41A091812187D34914201D3641C32
:1001500000E04900002C01DA002070BD002391422C
:1001600001D3891A0343400849000028F7D1002928
:100170000AD0914202D10121C90705E0914201D282
:10018000012101E00121C943E005C018401900F038
:1001900012FA70BDF0B507460846584087B0C00F48
:1001A000049048000E46590040084908BC1A88418E
:1001B00005D2384631461E4617460B4602465800C1
:1001C000400810434DD0300D039040055900400DBC
:1001D000490D0590401A0290402873DA1803012156
:1001E000000B09050843019004980092002806D0EE
:1001F0001146019A494200209041009101900298D5
:1002000040210A1A0199009800F0B2F905460C46FF
:100210006B4607CB00F0BCF9C0197141039A0E0D73
:100220000023D71756401A467A40164344D0049A02
:10023000002A2DD0029A012A039A15DC1205C01A51
:10024000914101263605001C7141D20F059ED2074F
:100250000093019202962A46234600F0FAF907B06D
:10026000F0BD38463146FAE71605234A0F46B21864
:10027000C01AB74101210905001C4F4100187F41F8
:10028000114618187941E20F10436D19644113E0CB
:10029000E2076D0815436408C2071443039A012658
:1002A0001205C01A91413605001C7141CE07400865
:1002B00030434908C01851412A46234600F0BCF992
:1002C000CDE7FFE7049801224000C117121A00236E
:1002D0008B4104983146C417381AA141EEE730B477
:1002E0000124E407634030BC54E730B40124E40740
:1002F000614030BC4EE700000000E0FFF0B51FB4E5
:1003000088B00B990998002448400999C00F49000A
:1003100049080991C0070B990090490049080B91C1
:1003200009990898A64608431CD00B990A980843D7
:1003300018D0099801244000420D4800410D099849
:1003400024050003000B204309900B980003000BC9
:1003500020430B9050181C4940180022019014466D
:10036000104605E0002001460DB0F0BD032801DA7B
:10037000034600E003239C46C11A0AAE0AE05F0070
:1003800008ADED5B4F00F75B7D430027AA187C4169
:10039000491C5B1E6145F2DD410004AB5A52210449
:1003A000120C0A43240C401C0828DFDB0198029041
:1003B0000099704601910090059B049A0799069850
:1003C00000F047F9D0E700000DFCFFFFF0B50C4648
:1003D0005C4085B0E40FE40703944C0000266408F9
:1003E00059009446490802460296224321D06246AB
:1003F0000A431ED06200570D4A000E032303550D19
:10040000012402462C492405781B1B0B360B40188F
:1004100023432643614600901C46501AB44103D33F
:100420000098401C009002E0921800985B41002860
:1004300003DA0020014605B0F0BD002001210905C6
:100440000746864611E064461D46141BB54106D397
:100450006546521BB341744607430C43A646CD077D
:1004600040084908284392185B4105460D43EAD1EC
:100470001046184313D06046194650407140084357
:1004800006D06046101AB34106D20122002306E0CE
:1004900000220123DB0702E00122D243531000981F
:1004A00074460105381C6141029C039D0019694195
:1004B00000F0C2F8BFE70000FD03000010B5002205
:1004C0009623114600F07FF810BD00000EB5C2174C
:1004D000C10F5040CA0740180021054B02930192FA
:1004E00000910A460B4600F0B4F803B000BD0000CE
:1004F000330400000EB505490291002100910A461F
:100500000B46019100F0A5F803B000BD33040000D4
:10051000C20FD207400040080BD0C10D0723DB01FA
:10052000C91840020905400A1143C2084007114397
:100530007047002001467047CB0FDB07490010B51C
:10054000490802460A4307D00A0D07240903E401BB
:10055000090B121B002A01DC002010BDC900440F4A
:100560000C43C100E018D205801800F024F810BD3B
:1005700010B5202A04DB0146203A9140002010BD2E
:10058000914020239C1A0346E3401943904010BD3C
:1005900010B5202A06DBCB170846203A1041C117B8
:1005A0000B4306E00B461341D0402024A21A914091
:1005B0000843194610BD002904DA401C490001D146
:1005C00040084000704770B40024050C05D1102489
:1005D000000402D1002921D01124050E01D100020E
:1005E0000834050F01D10001241D850F01D18000C1
:1005F000A41C002801DB4000641C002908D0202531
:100600002E1B0D46F540A14000D00121294308438F
:1006100001061B1B000ADB1D02D5002070BC7047C1
:10062000DB05181880180029F8DA401C4900F5D1BC
:1006300070BC40084000704710B5002B08DA002459
:10064000401C614192185B411A4301D140084000AF
:1006500010BDF0B51FB482B005460C0003D00846AB
:1006600000F074FE02E000F071FE203002460090BF
:1006700021462846FFF77CFF049B059A04460F4657
:1006800018431143084314D0184610431BD0009858
:1006900040210A1A1846059900F040F805460E4612
:1006A000009A05990498FFF763FF084305D00120DD
:1006B00004E02046394607B0F0BD0020C1170543CD
:1006C0000E432C43374300990E986305401A790571
:1006D000E40A00220C43FD0A0A3002D5002001463C
:1006E000E9E70105101969410C9C0D9D001969414C
:1006F000FFF7A2FFDFE70000064C0125064E05E0EC
:10070000E36807CC2B430C3C98471034B442F7D332
:10071000FFF7DAFC5C1400087C14000810B5202AEE
:1007200004DB0846203AD040002110BD0B46D340E0
:10073000D0402024A21A91400843194610BDF8B5B4
:1007400005460F4614461E4600F0D2FA202816D061
:100750006806000E00F028FB002814D0384600F090
:1007600023FB002813D000F04DFB6800401CC0B2F2
:1007700000F01AFB00280ED00025761E15E000F0D0
:10078000C8FA1020F8BD00F0C4FA0120F8BD00F04E
:10079000C0FA0220F8BD00F0BCFA0220F8BD01202A
:1007A00000F0D4FA2070641C6D1CB542F7DB002009
:1007B00000F0CCFA207000F0ACFA0020F8BDF8B5DB
:1007C00007460D461646042400F092FA202813D05E
:1007D0007806000E00F0E8FA002811D0284600F054
:1007E000E3FA002810D0304600F0DEFA00280FD0DF
:1007F00000F08FFA2046F8BD00F08BFA1020F8BD0B
:1008000000F087FA0120F8BD00F083FA0220F8BD5D
:1008100000F07FFA0220F8BD10B5044600F040F861
:10082000012060700021A170E0700520607102203D
:10083000A0713F20A0722070204600F0ADFC10BDDA
:1008400070B5054600247D26F60003E0304600F032
:1008500004F8641CAC42F9D370BD10B500F0EEFD95
:1008600000F09AFD0028FBD010BD000010B5FF225B
:1008700096210948FFF73EFC96220749074800F0F9
:1008800011FC054800212030417001700171C170D8
:10089000C171817110BD000003000020003C000800
:1008A000F8B501214C04204600F04CFC0121204603
:1008B00000F048FC10246846048003278770C47049
:1008C0000926F6066946304600F00EF8012568460E
:1008D000058087701421C1706946304600F004F825
:1008E000356134610020F8BDF0B5CA7813071B0FDD
:1008F000D20601D58A78134300229406240E0E886E
:10090000012595402E4207D005680F26A640B54325
:100910001E46A64035430560521CD2B2082AECD3CD
:10092000071D0A88120A944600229406240E012507
:1009300095406646354207D03D680F26A640B54330
:100940001E46A64035433D60521CD2B2082AECD365
:10095000CA78282A06D0482A03D1026909880A439E
:100960000261F0BD426909880A434261F0BD10B5D9
:100970004B07DB0E082901D2203000E024300F2481
:100980009C4001689A40A1431143016010BD0021C1
:10099000C9430180032181700421C1707047FEE7C3
:1009A000F8B5704C704F01218902384600F02BF9E0
:1009B00000256E4E00280BD03915384600F0E2F8BD
:1009C000B078012804D0052802D0B5703570B58004
:1009D00001214902384600F016F9002812D0012101
:1009E0004902384600F0CEF8B078012801D0052839
:1009F00001D1B570B58035707078002802D0F580CF
:100A00007570B5702021384600F0FDF8002867D0D9
:100A10002021384600F0B6F8B078042806D0002827
:100A200004D0052841D001283FD059E0F088504932
:100A3000C8420BD17078401CC1B271704D48012979
:100A400009D002290CD0032913D10EE0FF2138462A
:100A500000F019F920E00178384600F014F908E0B8
:100A60004178384600F00FF903E08178384600F00D
:100A70000AF97078032805D3B57075703570F58064
:100A800000E0641E3C49384600F0ACF8002827D14D
:100A9000002CF6D124E0641E3749384600F0A2F855
:100AA00000281DD1002CF6D11AE00120B070B088CA
:100AB000A92801D9A920B080B088962806D22D494E
:100AC0002039095C384600F0DEF806E02B490818AA
:100AD000A038817A384600F0D6F8B088401CB08043
:100AE0000421384600F08FF8002827D0F580042133
:100AF000384600F047F8384600F0C2F831784A1C12
:100B0000D3B21F4A33705054B078052817D000284C
:100B100014D11078CC2804D0DB2802D00521B17084
:100B2000B080022B0AD3CC2801D0DB2806D10421C7
:100B3000B170517800020843F0803570F8BDB0887C
:100B4000A92801D9A920B080B0889628F6D20949F1
:100B5000527820390A546420401EC0B20028FBD1CC
:100B6000F8BD0000A086010000540040AE00002047
:100B7000D033FFFF230000200480000099000020F4
:100B800008010020CA0700D0426C8A0700D5826C99
:100B90000A0700D5C26C8A0600D5026D4A0600D548
:100BA000426D0A0600D5826DCA0500D5C26D8A0560
:100BB00000D5026E4A0500D5426E090500D5806E4B
:100BC0007047000010B50649884208D101214C0544
:100BD000204600F0D3FA0021204600F0CFFA10BDE5
:100BE000005400400A0407D5006F0840400401D0BB
:100BF0000120704700207047406B084201D001205F
:100C0000704700207047406B084201D001207047B8
:100C1000002070477CB51720694608710020487194
:100C200001248C7101A800F063FA01214D042846CB
:100C300000F088FA0121284600F084FA0925ED0623
:100C4000032205212846FFF792FE032208212846A9
:100C5000FFF78DFE6846FFF79AFE2002694608807E
:100C60008C701C24CC702846FFF73EFE202069467D
:100C70000880CC702846FFF737FE00F00DF87CBDE9
:100C80000069C0B27047016170478268920A92029F
:100C900049080A43826070471CB5684600F04CF86A
:100CA0000121480500F05CFA0F4C2046FFF78AFF4F
:100CB0000D484030C16A49084900C16240212046C0
:100CC000FFF7E3FF20685F2188432060206824212C
:100CD00008432060206B000B00032063206B034956
:100CE000084320631CBD000000540040240600009F
:100CF00070B501260924E40626611025256101202E
:100D0000FFF7ABFD66610120FFF7A7FD65610120DC
:100D100070BD70B501250924E40665610120FFF767
:100D20009CFD102020610120FFF797FD2561012027
:100D3000FFF793FD002070BD012101805521418006
:100D40000149416070470000A0860100F1B5802490
:100D5000002501200926F606306110270120FFF743
:100D60007CFD37610120FFF778FDB068C00700D037
:100D7000254377610120FFF770FD6408EED10098EC
:100D8000002802D00120706101E0012030610120C3
:100D9000FFF763FD37610120FFF75FFD77610120F9
:100DA000FFF75BFD2846F8BDF1B580240925012732
:100DB000ED0610260120FFF750FD0098204201D0DB
:100DC0002F6100E06F610120FFF747FD2E610120D8
:100DD000FFF743FD6E616408ECD10120FFF73DFD94
:100DE0002F610120FFF739FD2E610120FFF735FD4E
:100DF000A868C007C417641C0120FFF72EFD6E61B0
:100E00002046F8BD70B501260924E40626610120BC
:100E1000FFF723FD102525610120FFF71EFD666108
:100E20000120FFF71AFD65610120FFF716FD012083
:100E300070BD000006490878002807D0012805D0B9
:100E4000052803D0042801D1002008707047000055
:100E5000B0000020F3B58DB06B4C00200A900690D6
:100E60000E98807A03900E980122417810468840AF
:100E7000C1B205910E99104689788840C0B204909D
:100E800010221B217120FFF79AFCF3221D217120F3
:100E9000FFF795FC0120FFF7D3FC01230AAA1B21D1
:100EA0007120FFF74CFC641E08A8007AC00701D02F
:100EB000002CEFD1002C44D0012306AA1A21712066
:100EC000FFF73DFC022307AA16217120FFF737FC2C
:100ED0006946087F497F000208430D9948814B49C4
:100EE000884225D2FFF706FB06460F460498FFF717
:100EF00001FB04460D460598FFF7FCFA00900E989A
:100F000001910078FFF7F6FA414A424BFFF7F6F9F4
:100F1000019B009AFFF7F2F922462B46FFF756FA9B
:100F200032463B46FFF752FAFFF706FB0D9908627F
:100F3000002002906846017E0298C140C8075AD13D
:100F400002E000200FB0F0BD029802234400A01C74
:100F5000C1B207AA71200B94FFF7F1FB6946087F25
:100F6000497F000208430D990853FFF7C3FA009028
:100F700001910498FFF7BEFA06460F460598FFF761
:100F8000B9FA04460E980D460078FFF7B3FA204AE6
:100F9000204BFFF7B3F922462B46FFF7AFF9324655
:100FA0003B46FFF713FA019B009AFFF70FFAFFF792
:100FB000C3FA02998A000D995418E06003988006DC
:100FC00019D56846007E800615D40D984089FFF734
:100FD00075FA05460D990B98085AFFF76FFA2946DE
:100FE000FFF79AF8FFF794FA00220B4BFFF786F908
:100FF000FFF7A2FA60620298401C0290029805284E
:1010000098DB01209EE7000010270000FFFF000092
:101010003333333333333340000036407CB5054639
:101020001D4C0020019010221B217120FFF7C7FBEF
:1010300031221C217120FFF7C2FB0520FFF700FCC5
:10104000012301AA1B217120FFF779FB641E68466A
:101050000079800701D5002CF2D1002C1AD0022390
:101060006A4600217120FFF76AFB694608784978D3
:101070000002084300B2FFF729FA0022074BFFF7EE
:10108000A5F90022064BFFF785F8FFF755FAA8638C
:1010900001207CBD00207CBD1027000000406F4077
:1010A00000003D4010B5002302E0C45CCC545B1C42
:1010B0009342FADB10BD70B50546FF200023FF24E4
:1010C000323410E0EA5C50400822060603D54000A6
:1010D0006040C0B201E04006000E521ED2B2002AAB
:1010E000F3D15B1CDBB28B42ECD370BD70470000C8
:1010F00030B5827801240178002A16D08B080E4A78
:101100009B009A1813688907C90EFF258D40AB43D1
:101110004578AD072D0E8D402B4313600078C00637
:10112000C00E84400548046030BDC806C00E84402F
:1011300002488030046030BD00E400E000E100E0DF
:1011400070470000054A002903D0516901435161ED
:10115000704751698143516170470000001002409F
:10116000054A002903D0D1690143D1617047D16993
:101170008143D1617047000000100240054A0029F8
:1011800003D01169014311617047116981431161F5
:101190007047000000100240F8B504466078A1785E
:1011A00000010843C6B227786179A079090180223D
:1011B00011430843C0B20090A57A7A2269217120B8
:1011C000FFF7FDFA32461F217120FFF7F8FA3A4681
:1011D0001E217120FFF7F3FA002226217120FFF76C
:1011E000EEFAE07800280AD0EAB224217120FFF755
:1011F000E6FA25217120009AFFF7E1FAF8BD2A0AE4
:1012000020217120FFF7DBFAEAB221217120FFF7DC
:10121000D6FA23217120009AFFF7D1FAF8BD704762
:101220007CB50024019401210091304802680B0430
:101230001A4302604A04CD03036813400093019BE4
:101240005B1C0193009B002B02D1019BAB42F3D2AC
:101250000268920301D5009100E00094254D244AD4
:101260002A600724009E244AF0232402012E18D06D
:1012700006680E43066001688907FCD51F4929608E
:10128000112111604168994341604168A143416067
:101290004168890889004160416802221143416028
:1012A0001DE015681026354315601568ED08ED0042
:1012B000156042689A4342604268A24342604268B5
:1012C00092089200426042680A43426000E000BF18
:1012D00041680907890F0129F9D17CBD00BF416828
:1012E0000907890F0229F9D17CBD000000100240D6
:1012F0000024F400BC00002000200240006CDC024E
:1013000003480168002902D00168491E0160704746
:10131000B800002010B50B4801680122114301609C
:101320004168094A11404160016801221204914359
:1013300001600021C943816000218160FFF770FFD7
:1013400010BD0000001002400CF8FFF82021020C34
:1013500001D010211046020A01D0104608390209B6
:1013600001D01046091F820801D01046891E42088C
:1013700001D0881E7047081A704702E008C8121F83
:1013800008C1002AFAD170477047002001E001C16E
:10139000121F002AFBD1704704480169C90303D515
:1013A00000210161012070470020704700E000E04B
:1013B000FFF730FCFFF75AFA1C48FFF72DFA1C49DB
:1013C000C86A01221043C862184E1A4D1A4C3C3E9E
:1013D00016483C38FFF722FE144908463C38FFF710
:1013E00039FD3088010A217029706070687002210F
:1013F0001048FFF760FEA0707088010AE170297044
:101400002071687002210B48FFF755FE6071B088AB
:10141000010AA1712970E071687002210548FFF787
:101420004AFE2072FFF706FDD2E70000FC00002014
:101430004054004000000020230000203021484399
:10144000054900220A610002000A401E48618A61C3
:10145000052008617047000000E000E07C140008EF
:1014600000000020C00000007A1300083C150008AE
:10147000C0000020600200008A130008000000FF86
:10148000000000000000000000000000000000005C
:10149000000000000000000000000000000000004C
:1014A000000000000000000000000000000000003C
:1014B000000000000000000000000000000000002C
:1014C000000000000000000000000000000000001C
:1014D000000000000000000000000000000000000C
:1014E00000000000000000000000000000000000FC
:1014F00000000000000000000000000000000000EC
:1015000000000000000000000000000000000000DB
:101510000000000000FF00000000000000000000CC
:1015200000000000000000000000000000000000BB
:0C15300000000000000000000024F40097
:04000005080000C12E
:00000001FF
