:020000040800F2
:1000000028020020D9000008330300082F0300084D
:1000100000000000000000000000000000000000E0
:10002000000000000000000000000000B906000809
:100030000000000000000000E9050008A908000811
:10004000EB000008EB00000800000000EB000008D7
:10005000EB000008EB00000845010008EB00000879
:100060000000000000000000000000000000000090
:10007000EB000008EB000008EB00000800000000A7
:10008000EB0000080000000000000000EB0000088A
:10009000000000000000000000000000EB0000086D
:1000A00000000000EB00000800000000EB0000086A
:1000B000EB0000080000000000000000000000004D
:1000C0000448854600F02CF800480047AD0B0008B6
:1000D000C046C04628020020044880470448004724
:1000E000FEE7FEE7FEE7FEE7FEE7FEE7C1080008E1
:1000F000C100000830B50B46014600202022012433
:1001000009E00D46D5409D4205D31D469540491B4B
:100110002546954040191546521E002DF1DC30BD94
:10012000064C0125064E05E0E36807CC2B430C3C4A
:1001300098471034B442F7D3FFF7C6FFB40B00085A
:10014000D40B000810B5082000F00CF8002802D0ED
:10015000082000F001F810BD014948617047000017
:10016000000401400146074840690840002806D0C5
:10017000044800680840002801D001207047002092
:10018000FCE70000000401408179002948D02D4996
:100190000968026891432B4A116011464968026858
:1001A0009143284A51600179002906D11146096816
:1001B00002681143234A116005E022494968026838
:1001C0001143204A51601F498968026891431D4AC2
:1001D00091601146C968026891431A4AD160417919
:1001E00010290CD11146896802681143154A9160A3
:1001F0001146C96802681143124AD16020E0417972
:10020000082906D10F498968026811430D4A916097
:1002100016E00C49C968026811430A4AD1600FE030
:100220000179002906D10749096802689143054A06
:10023000116005E00349496802689143014A516031
:1002400070470000000401400021016001710C2191
:100250004171002181717047F8B50246CD782F07B2
:100260003F0FCD7810263540002D01D08D782F43DB
:100270001446002011E085062B0E0D8801268640CD
:100280003540002D07D025680F269E40B5433E46D9
:100290009E4035432560451CE8B20828EBDB141D61
:1002A0000D882D120095002011E085062B0E0125EA
:1002B0008540009E3540002D07D025680F269E40C2
:1002C000B5433E469E4035432560451CE8B20828AC
:1002D000EBDBCD78282D04D155690E883543556167
:1002E00006E0CD78482D03D115690E883543156198
:1002F000F8BD70B54D07EB0E082902DA054620352A
:1003000001E0054624352C460F269E402568B5435E
:1003100016469E403543256070BD0161704700213F
:10032000C9430180032181700421C170704700BF5F
:10033000FEE770478178002925D017490322120271
:100340008918027892109200895802789207D30E89
:10035000FF229A40914342789207120E03789B073E
:10036000DB0E9A4011430C4A03231B02D218037878
:100370009B109B00D1500178CA06D20E01219140FA
:10038000054A116007E00178CA06D20E01219140AA
:10039000014A80321160704700E100E003490860C3
:1003A00000BF024909680029FBD170470000002006
:1003B0003EB5684600F03AF97D21C9000198FFF783
:1003C00099FE0446601E0D49884201D901200CE0C7
:1003D000601E0B4948610321081F00F07BFB0020D1
:1003E00007498861072008610020002801D000BF6C
:1003F000FEE70021481E00F06DFB3EBDFFFFFF0041
:1004000000E000E000BFFFF7D3FF0C48FFF7C6FF96
:10041000E120400200F082FA0EE009A000F050FB5B
:1004200000F0AEF80121080700F0F0F801210220E9
:1004300000F052F800F0BEF8EFE70000B80B000043
:100440000D0A2D2D3E52756E6E696E672E2E2E0092
:100450001FB50121480400F0C9F80121880700F008
:10046000D5F801A8FFF75BFF082168468180482185
:10047000C17101A90920C006FFF7EEFE01A8FFF730
:100480004EFF4021684681801021C17101A90920D9
:10049000C006FFF7E1FE40210920C006FFF73DFF3F
:1004A0000321002000F00AF902A8FFF7CDFE082082
:1004B00002900021684601730C2141730121817370
:1004C00002A8FFF761FE0621684601700121417014
:1004D0008170FFF72FFF1FBD01280BD1124A126850
:1004E0008243114B1A60114A126904231A430F4BBD
:1004F0001A610BE00C4A126801231A430A4B1A6076
:100500000A4A126904231A43084B1A61012901D1CE
:1005100030BF02E040BF20BF20BF044A126904235D
:100520009A43024B1A6170470070004000ED00E0F2
:1005300008B50121480400F059F80121880400F0B1
:1005400055F86846FFF7EBFE0B496846018000212D
:10055000C17069460920C006FFF77EFE6846FFF7B6
:10056000DEFE0021C943684601800021C170694652
:100570000248FFF771FE08BDB79F00000004004865
:1005800010B505A000F09CFA0A20FFF707FFFFF75F
:10059000CFFFFFF75DFF10BD0D0A2D2D3E456E7498
:1005A000727920446565702053746F70204D6F64BC
:1005B0006500000010B500F083F9FFF7F9FE642034
:1005C000FFF7ECFEE120400200F0A8F901A000F0E6
:1005D00077FA10BD0D0A2D2D3E57616B65757020A1
:1005E000427920455854490070470000002905D041
:1005F000054A52690243044B5A6104E0024A5269B7
:100600008243014B5A61704700100240002905D017
:10061000054AD2690243044BDA6104E0024AD26916
:100620008243014BDA6170470010024010B500218F
:1006300000221A4B5B680C2423401946002906D07F
:10064000042907D0082908D00C290CD108E0144B44
:1006500003600BE0134B036008E0134B036005E0FD
:10066000124B036002E00E4B036000BF00BF0B4B58
:100670005B68F024234019090D4B5A5C0368D34092
:100680004360064B5B68072424022340190A094B88
:100690005A5C4368D340836010BD000000100240E4
:1006A00000127A000024F400006CDC02409C000080
:1006B00004000020140000207047000030B5002224
:1006C0008B071C0F0F23A3401A468B10002B0ED153
:1006D000224B9B689343214CA36023469B688C0765
:1006E000250F0446AC4023431C4CA36034E08B1020
:1006F000012B0ED1194BDB689343184CE360234662
:10070000DB688C07250F0446AC402343134CE360A1
:1007100022E08B10022B0ED1104B1B6993430F4C20
:10072000236123461B698C07250F0446AC402343F5
:100730000A4C236110E08B10032B0DD1074B5B6932
:100740009343064C636123465B698C07250F04467F
:10075000AC402343014C636130BD00000000014008
:100760000CB500210191012100910020494909683F
:10077000012212041143474A116000BF454909682C
:1007800001225204114000910199491C01910099E4
:10079000002903D1921001999142EFD23D49096895
:1007A000012252041140002902D00121009101E0F0
:1007B000002100913849394A11600099012930D14E
:1007C0003749096810221143354A116011460968FA
:1007D000C908C90011602F494868F02201469143B9
:1007E000084600BF2B4948604868072212020146AC
:1007F0009143084600BF2749486049688908890035
:10080000244A51601146496801221143214A51602E
:1008100000E000BF1F4949680C2211400429F8D1AB
:1008200037E01C490968012211431A4A116000BFD0
:1008300018490968022211400029F9D01949174ABC
:1008400011601121164A116012494868F0220146D0
:100850009143084600BF0F494860486807221202CA
:1008600001469143084600BF0A4948604968890823
:100870008900084A51601146496802221143054A1D
:10088000516000E000BF034949680C22114008296B
:10089000F8D10CBD001002400024F4001C00002020
:1008A00000200240006CDC0204480068002804D0EC
:1008B00002480068401E014908607047000000209F
:1008C00010B50D480068012108430B49086008462F
:1008D00040680A4908400849486008460068012104
:1008E00009048843044908600020C0438860002050
:1008F0008860FFF735FF10BD001002400CF8FFF8CC
:10090000002905D0C26801235B031A43C26004E0DA
:10091000C26801235B039A43C260704710B588B078
:1009200004461B216846017101214171817101A8B2
:10093000FFF700FD00212548FFF7E2FF0121080431
:10094000FFF764FE01214804FFF750FE0122032156
:100950000920C006FFF7CDFC01220C210920C006AA
:10096000FFF7C7FC02A800F0A1F802940020039052
:10097000049005900C20069002A9144800F048F855
:1009800007A8FFF7CCFC01210903684681830321F6
:1009900081771821C17707A90920C006FFF75CFC01
:1009A0000821684681834821C17707A90920C0062C
:1009B000FFF752FC01222021044800F012F8012127
:1009C0000248FFF79DFF08B010BD0000003801404D
:1009D000024610680840002801D00120704700201E
:1009E000FCE7012909D1002A03D043690B43436185
:1009F0000CE043698B43436108E0002A03D0C368DD
:100A00000B43C36002E0C3688B43C36070470000C0
:100A1000FEB504460D460026E068012149028843E0
:100A200001225202E96811400843E060E068D10009
:100A30008843D200696811400843E060E0680C21F7
:100A400088430C22296911400843E0602069910223
:100A500088439202A9681140084320616846FFF765
:100A6000E5FD0E48844202D00D48844200D1029E2A
:100A7000A068000D0005A06030092968FFF73AFB67
:100A80000001A1680843A06030462968FFF732FBE7
:100A90000007000FA1680843A060FEBD00380140B8
:100AA00000440040CA05D20D426070474B21C90185
:100AB0000160002141608160C1600C2101617047CB
:100AC00010B5024A024900F050F810BD890B000829
:100AD0002000002010B5002819DB1A4A03231B024E
:100AE000D21883089B00D2588307DC0EFF23A34053
:100AF0009A438B071B0E8407E40EA3401A43114B45
:100B0000032424021B198408A4001A5118E00E4A79
:100B100003071B0F083B9B089B00D2588307DC0E82
:100B2000FF23A3409A438B071B0E8407E40EA340C8
:100B30001A43054B0407240F083CA408A4001A51CB
:100B400010BD000000E100E01CED00E002E008C87C
:100B5000121F08C1002AFAD170477047002001E037
:100B600001C1121F002AFBD17047F8B516460F4687
:100B70000446002503E03946B047641C6D1C20780C
:100B80000028F8D12846F8BD70B504460D46E1B2FC
:100B90000548FFF787FF00BF40210348FFF718FF14
:100BA0000028F9D0204670BD00380140FFF72AFC2C
:100BB00000BFFEE7D40B0008000000202400000066
:100BC0004C0B0008F80B0008240000200402000071
:100BD0005C0B0008000000000000000000000000A6
:100BE00001020304060708090000000001020304D3
:080BF0000024F40000000000E5
:04000005080000C12E
:00000001FF
