Component: ARM Compiler 5.06 update 7 (build 960) Tool: armlink [4d3601]

==============================================================================

Section Cross References

    main.o(i.main) refers to pwr_deepstop_exti_wakeup.o(i.PWR_DeepStop_EXTI_Wakeup_Sample) for PWR_DeepStop_EXTI_Wakeup_Sample
    pwr_deepstop_exti_wakeup.o(i.PWR_DeepStop_EXTI_Wakeup_Sample) refers to platform.o(i.PLATFORM_InitDelay) for PLATFORM_InitDelay
    pwr_deepstop_exti_wakeup.o(i.PWR_DeepStop_EXTI_Wakeup_Sample) refers to platform.o(i.PLATFORM_DelayMS) for PLATFORM_DelayMS
    pwr_deepstop_exti_wakeup.o(i.PWR_DeepStop_EXTI_Wakeup_Sample) refers to pwr_deepstop_exti_wakeup.o(i.USART_Configure) for USART_Configure
    pwr_deepstop_exti_wakeup.o(i.PWR_DeepStop_EXTI_Wakeup_Sample) refers to printfb.o(i.__0printf$bare) for __2printf
    pwr_deepstop_exti_wakeup.o(i.PWR_DeepStop_EXTI_Wakeup_Sample) refers to pwr_deepstop_exti_wakeup.o(i.PWR_Pretreatment) for PWR_Pretreatment
    pwr_deepstop_exti_wakeup.o(i.PWR_DeepStop_EXTI_Wakeup_Sample) refers to hal_rcc.o(i.RCC_APB1PeriphClockCmd) for RCC_APB1PeriphClockCmd
    pwr_deepstop_exti_wakeup.o(i.PWR_DeepStop_EXTI_Wakeup_Sample) refers to hal_pwr.o(i.PWR_EnterSTOPMode) for PWR_EnterSTOPMode
    pwr_deepstop_exti_wakeup.o(i.PWR_DeepStop_EXTI_Wakeup_Sample) refers to pwr_deepstop_exti_wakeup.o(i.PWR_Reinitialize) for PWR_Reinitialize
    pwr_deepstop_exti_wakeup.o(i.PWR_EXTI_Configure) refers to hal_rcc.o(i.RCC_AHBPeriphClockCmd) for RCC_AHBPeriphClockCmd
    pwr_deepstop_exti_wakeup.o(i.PWR_EXTI_Configure) refers to hal_rcc.o(i.RCC_APB1PeriphClockCmd) for RCC_APB1PeriphClockCmd
    pwr_deepstop_exti_wakeup.o(i.PWR_EXTI_Configure) refers to hal_gpio.o(i.GPIO_StructInit) for GPIO_StructInit
    pwr_deepstop_exti_wakeup.o(i.PWR_EXTI_Configure) refers to hal_gpio.o(i.GPIO_Init) for GPIO_Init
    pwr_deepstop_exti_wakeup.o(i.PWR_EXTI_Configure) refers to hal_gpio.o(i.GPIO_SetBits) for GPIO_SetBits
    pwr_deepstop_exti_wakeup.o(i.PWR_EXTI_Configure) refers to hal_syscfg.o(i.SYSCFG_EXTILineConfig) for SYSCFG_EXTILineConfig
    pwr_deepstop_exti_wakeup.o(i.PWR_EXTI_Configure) refers to hal_exti.o(i.EXTI_StructInit) for EXTI_StructInit
    pwr_deepstop_exti_wakeup.o(i.PWR_EXTI_Configure) refers to hal_exti.o(i.EXTI_Init) for EXTI_Init
    pwr_deepstop_exti_wakeup.o(i.PWR_EXTI_Configure) refers to hal_misc.o(i.NVIC_Init) for NVIC_Init
==============================================================================

Removing Unused input sections from the image.

    Removing main.o(.rev16_text), (4 bytes).
    Removing main.o(.revsh_text), (4 bytes).
    Removing pwr_deepstop_exti_wakeup.o(.rev16_text), (4 bytes).
    Removing pwr_deepstop_exti_wakeup.o(.revsh_text), (4 bytes).
    Removing platform.o(.rev16_text), (4 bytes).
    Removing platform.o(.revsh_text), (4 bytes).
    Removing mcpxx_it.o(.rev16_text), (4 bytes).
    Removing mcpxx_it.o(.revsh_text), (4 bytes).
    Removing hal_adc.o(.rev16_text), (4 bytes).
    Removing hal_adc.o(.revsh_text), (4 bytes).
    Removing hal_adc.o(i.ADC_AnalogWatchdogCmd), (24 bytes).
    Removing hal_adc.o(i.ADC_AnalogWatchdogSingleChannelConfig), (24 bytes).
    Removing hal_adc.o(i.ADC_AnalogWatchdogThresholdsConfig), (40 bytes).
    Removing hal_adc.o(i.ADC_AnyChannelCmd), (24 bytes).
    Removing hal_adc.o(i.ADC_AnyChannelNumCfg), (16 bytes).
    Removing hal_adc.o(i.ADC_AnyChannelSelect), (72 bytes).
    Removing hal_adc.o(i.ADC_ClearFlag), (28 bytes).
    Removing hal_adc.o(i.ADC_ClearITPendingBit), (28 bytes).
==============================================================================

Image Symbol Table

    Local Symbols

    Symbol Name                              Value     Ov Type        Size  Object(Section)

    ../clib/microlib/division.c              0x00000000   Number         0  uidiv.o ABSOLUTE
    ../clib/microlib/division.c              0x00000000   Number         0  uldiv.o ABSOLUTE
    ../clib/microlib/init/entry.s            0x00000000   Number         0  entry10b.o ABSOLUTE
    ../clib/microlib/init/entry.s            0x00000000   Number         0  entry.o ABSOLUTE
    ../clib/microlib/init/entry.s            0x00000000   Number         0  entry11a.o ABSOLUTE
    ../clib/microlib/init/entry.s            0x00000000   Number         0  entry2.o ABSOLUTE
    ../clib/microlib/init/entry.s            0x00000000   Number         0  entry10a.o ABSOLUTE
    ../clib/microlib/init/entry.s            0x00000000   Number         0  entry9b.o ABSOLUTE
    ../clib/microlib/init/entry.s            0x00000000   Number         0  entry9a.o ABSOLUTE
    ../clib/microlib/init/entry.s            0x00000000   Number         0  entry8b.o ABSOLUTE
    ../clib/microlib/init/entry.s            0x00000000   Number         0  entry8a.o ABSOLUTE
    ../clib/microlib/init/entry.s            0x00000000   Number         0  entry7b.o ABSOLUTE
    ../clib/microlib/init/entry.s            0x00000000   Number         0  entry7a.o ABSOLUTE
    ../clib/microlib/init/entry.s            0x00000000   Number         0  entry5.o ABSOLUTE
    ../clib/microlib/init/entry.s            0x00000000   Number         0  entry12b.o ABSOLUTE
    ../clib/microlib/init/entry.s            0x00000000   Number         0  entry12a.o ABSOLUTE
    ../clib/microlib/init/entry.s            0x00000000   Number         0  entry11b.o ABSOLUTE
    ../clib/microlib/longlong.c              0x00000000   Number         0  llsshr.o ABSOLUTE
    ../clib/microlib/longlong.c              0x00000000   Number         0  llushr.o ABSOLUTE
    ../clib/microlib/longlong.c              0x00000000   Number         0  llshl.o ABSOLUTE
    ../clib/microlib/printf/printf.c         0x00000000   Number         0  printf4.o ABSOLUTE
    ../clib/microlib/printf/printf.c         0x00000000   Number         0  printfb.o ABSOLUTE
    ../clib/microlib/printf/printf.c         0x00000000   Number         0  printfa.o ABSOLUTE
    ../clib/microlib/printf/printf.c         0x00000000   Number         0  printf2.o ABSOLUTE
    ../clib/microlib/printf/printf.c         0x00000000   Number         0  printf3.o ABSOLUTE
    ../clib/microlib/printf/printf.c         0x00000000   Number         0  printf5.o ABSOLUTE
    ../clib/microlib/printf/printf.c         0x00000000   Number         0  printf6.o ABSOLUTE
    ../clib/microlib/printf/printf.c         0x00000000   Number         0  printf7.o ABSOLUTE
    ../clib/microlib/printf/printf.c         0x00000000   Number         0  printf8.o ABSOLUTE
    ../clib/microlib/printf/printf.c         0x00000000   Number         0  printf1.o ABSOLUTE
    ../clib/microlib/printf/printf.c         0x00000000   Number         0  printf0.o ABSOLUTE
    ../clib/microlib/stdio/streams.c         0x00000000   Number         0  stdout.o ABSOLUTE
    ../clib/microlib/stubs.s                 0x00000000   Number         0  iusefp.o ABSOLUTE
    ../fplib/microlib/fpadd.c                0x00000000   Number         0  dadd.o ABSOLUTE
    ../fplib/microlib/fpdiv.c                0x00000000   Number         0  ddiv.o ABSOLUTE
    ../fplib/microlib/fpepilogue.c           0x00000000   Number         0  depilogue.o ABSOLUTE
    ../fplib/microlib/fpfix.c                0x00000000   Number         0  dfixul.o ABSOLUTE
    ../fplib/microlib/fpmul.c                0x00000000   Number         0  dmul.o ABSOLUTE
    ..\..\..\..\Device\MCP1081\HAL_Lib\src\hal_adc.c 0x00000000   Number         0  hal_adc.o ABSOLUTE
    ..\..\..\..\Device\MCP1081\HAL_Lib\src\hal_crc.c 0x00000000   Number         0  hal_crc.o ABSOLUTE
    ..\..\..\..\Device\MCP1081\HAL_Lib\src\hal_dbg.c 0x00000000   Number         0  hal_dbg.o ABSOLUTE
    ..\..\..\..\Device\MCP1081\HAL_Lib\src\hal_exti.c 0x00000000   Number         0  hal_exti.o ABSOLUTE
    ..\..\..\..\Device\MCP1081\HAL_Lib\src\hal_flash.c 0x00000000   Number         0  hal_flash.o ABSOLUTE
    ..\..\..\..\Device\MCP1081\HAL_Lib\src\hal_gpio.c 0x00000000   Number         0  hal_gpio.o ABSOLUTE
    ..\..\..\..\Device\MCP1081\HAL_Lib\src\hal_i2c.c 0x00000000   Number         0  hal_i2c.o ABSOLUTE
    ..\..\..\..\Device\MCP1081\HAL_Lib\src\hal_iwdg.c 0x00000000   Number         0  hal_iwdg.o ABSOLUTE
    ..\..\..\..\Device\MCP1081\HAL_Lib\src\hal_misc.c 0x00000000   Number         0  hal_misc.o ABSOLUTE
    ..\..\..\..\Device\MCP1081\HAL_Lib\src\hal_pwr.c 0x00000000   Number         0  hal_pwr.o ABSOLUTE
    ..\..\..\..\Device\MCP1081\HAL_Lib\src\hal_rcc.c 0x00000000   Number         0  hal_rcc.o ABSOLUTE
    ..\..\..\..\Device\MCP1081\HAL_Lib\src\hal_spi.c 0x00000000   Number         0  hal_spi.o ABSOLUTE
    ..\..\..\..\Device\MCP1081\HAL_Lib\src\hal_syscfg.c 0x00000000   Number         0  hal_syscfg.o ABSOLUTE
    ..\..\..\..\Device\MCP1081\HAL_Lib\src\hal_tim.c 0x00000000   Number         0  hal_tim.o ABSOLUTE
    ..\..\..\..\Device\MCP1081\HAL_Lib\src\hal_uid.c 0x00000000   Number         0  hal_uid.o ABSOLUTE
    ..\..\..\..\Device\MCP1081\HAL_Lib\src\hal_usart.c 0x00000000   Number         0  hal_usart.o ABSOLUTE
    ..\..\..\..\Device\MCP1081\Source\KEIL_StartAsm\startup_mcp1081_keil.s 0x00000000   Number         0  startup_mcp1081_keil.o ABSOLUTE
    ..\..\..\..\Device\MCP1081\Source\system_mcp1081.c 0x00000000   Number         0  system_mcp1081.o ABSOLUTE
    ..\\..\\..\\..\\Device\\MCP1081\\HAL_Lib\\src\\hal_adc.c 0x00000000   Number         0  hal_adc.o ABSOLUTE
    ..\\..\\..\\..\\Device\\MCP1081\\HAL_Lib\\src\\hal_crc.c 0x00000000   Number         0  hal_crc.o ABSOLUTE
    ..\\..\\..\\..\\Device\\MCP1081\\HAL_Lib\\src\\hal_dbg.c 0x00000000   Number         0  hal_dbg.o ABSOLUTE
    ..\\..\\..\\..\\Device\\MCP1081\\HAL_Lib\\src\\hal_exti.c 0x00000000   Number         0  hal_exti.o ABSOLUTE
    ..\\..\\..\\..\\Device\\MCP1081\\HAL_Lib\\src\\hal_flash.c 0x00000000   Number         0  hal_flash.o ABSOLUTE
    ..\\..\\..\\..\\Device\\MCP1081\\HAL_Lib\\src\\hal_gpio.c 0x00000000   Number         0  hal_gpio.o ABSOLUTE
    ..\\..\\..\\..\\Device\\MCP1081\\HAL_Lib\\src\\hal_i2c.c 0x00000000   Number         0  hal_i2c.o ABSOLUTE
    ..\\..\\..\\..\\Device\\MCP1081\\HAL_Lib\\src\\hal_iwdg.c 0x00000000   Number         0  hal_iwdg.o ABSOLUTE
    ..\\..\\..\\..\\Device\\MCP1081\\HAL_Lib\\src\\hal_misc.c 0x00000000   Number         0  hal_misc.o ABSOLUTE
    ..\\..\\..\\..\\Device\\MCP1081\\HAL_Lib\\src\\hal_pwr.c 0x00000000   Number         0  hal_pwr.o ABSOLUTE
    ..\\..\\..\\..\\Device\\MCP1081\\HAL_Lib\\src\\hal_rcc.c 0x00000000   Number         0  hal_rcc.o ABSOLUTE
    ..\\..\\..\\..\\Device\\MCP1081\\HAL_Lib\\src\\hal_spi.c 0x00000000   Number         0  hal_spi.o ABSOLUTE
    ..\\..\\..\\..\\Device\\MCP1081\\HAL_Lib\\src\\hal_syscfg.c 0x00000000   Number         0  hal_syscfg.o ABSOLUTE
    ..\\..\\..\\..\\Device\\MCP1081\\HAL_Lib\\src\\hal_tim.c 0x00000000   Number         0  hal_tim.o ABSOLUTE
    ..\\..\\..\\..\\Device\\MCP1081\\HAL_Lib\\src\\hal_uid.c 0x00000000   Number         0  hal_uid.o ABSOLUTE
    ..\\..\\..\\..\\Device\\MCP1081\\HAL_Lib\\src\\hal_usart.c 0x00000000   Number         0  hal_usart.o ABSOLUTE
    ..\\..\\..\\..\\Device\\MCP1081\\Source\\system_mcp1081.c 0x00000000   Number         0  system_mcp1081.o ABSOLUTE
    ..\\main.c                               0x00000000   Number         0  main.o ABSOLUTE
    ..\\mcpxx_it.c                           0x00000000   Number         0  mcpxx_it.o ABSOLUTE
    ..\\platform.c                           0x00000000   Number         0  platform.o ABSOLUTE
    ..\\pwr_deepstop_exti_wakeup.c           0x00000000   Number         0  pwr_deepstop_exti_wakeup.o ABSOLUTE
    ..\main.c                                0x00000000   Number         0  main.o ABSOLUTE
    ..\mcpxx_it.c                            0x00000000   Number         0  mcpxx_it.o ABSOLUTE
    ..\platform.c                            0x00000000   Number         0  platform.o ABSOLUTE
    ..\pwr_deepstop_exti_wakeup.c            0x00000000   Number         0  pwr_deepstop_exti_wakeup.o ABSOLUTE
    cdrcmple.s                               0x00000000   Number         0  cdrcmple.o ABSOLUTE
    dc.s                                     0x00000000   Number         0  dc.o ABSOLUTE
    handlers.s                               0x00000000   Number         0  handlers.o ABSOLUTE
    init.s                                   0x00000000   Number         0  init.o ABSOLUTE
    RESET                                    0x08000000   Section      192  startup_mcp1081_keil.o(RESET)
    .ARM.Collect$$$$00000000                 0x080000c0   Section        0  entry.o(.ARM.Collect$$$$00000000)
    .ARM.Collect$$$$00000001                 0x080000c0   Section        4  entry2.o(.ARM.Collect$$$$00000001)
    .ARM.Collect$$$$00000004                 0x080000c4   Section        4  entry5.o(.ARM.Collect$$$$00000004)
    .ARM.Collect$$$$00000008                 0x080000c8   Section        0  entry7b.o(.ARM.Collect$$$$00000008)
    .ARM.Collect$$$$0000000A                 0x080000c8   Section        0  entry8b.o(.ARM.Collect$$$$0000000A)
    .ARM.Collect$$$$0000000B                 0x080000c8   Section        8  entry9a.o(.ARM.Collect$$$$0000000B)
    .ARM.Collect$$$$0000000E                 0x080000d0   Section        4  entry12b.o(.ARM.Collect$$$$0000000E)
    .ARM.Collect$$$$0000000F                 0x080000d4   Section        0  entry10a.o(.ARM.Collect$$$$0000000F)
    .ARM.Collect$$$$00000011                 0x080000d4   Section        0  entry11a.o(.ARM.Collect$$$$00000011)
    .ARM.Collect$$$$00002712                 0x080000d4   Section        4  entry2.o(.ARM.Collect$$$$00002712)
    __lit__00000000                          0x080000d4   Data           4  entry2.o(.ARM.Collect$$$$00002712)
    .text                                    0x080000d8   Section       28  startup_mcp1081_keil.o(.text)
    .text                                    0x080000f4   Section        0  uidiv.o(.text)
    .text                                    0x08000120   Section       36  init.o(.text)
    i.EXTI2_3_IRQHandler                     0x08000144   Section        0  mcpxx_it.o(i.EXTI2_3_IRQHandler)
    i.EXTI_ClearITPendingBit                 0x08000158   Section        0  hal_exti.o(i.EXTI_ClearITPendingBit)
    i.EXTI_GetITStatus                       0x08000164   Section        0  hal_exti.o(i.EXTI_GetITStatus)
    i.EXTI_Init                              0x08000188   Section        0  hal_exti.o(i.EXTI_Init)
    i.EXTI_StructInit                        0x08000248   Section        0  hal_exti.o(i.EXTI_StructInit)
    i.GPIO_Init                              0x08000258   Section        0  hal_gpio.o(i.GPIO_Init)
    i.GPIO_PinAFConfig                       0x080002f2   Section        0  hal_gpio.o(i.GPIO_PinAFConfig)
    i.GPIO_SetBits                           0x0800031a   Section        0  hal_gpio.o(i.GPIO_SetBits)
    i.GPIO_StructInit                        0x0800031e   Section        0  hal_gpio.o(i.GPIO_StructInit)
    i.HardFault_Handler                      0x0800032e   Section        0  mcpxx_it.o(i.HardFault_Handler)
    i.NMI_Handler                            0x08000332   Section        0  mcpxx_it.o(i.NMI_Handler)
    i.NVIC_Init                              0x08000334   Section        0  hal_misc.o(i.NVIC_Init)
    i.PLATFORM_DelayMS                       0x0800039c   Section        0  platform.o(i.PLATFORM_DelayMS)
    i.PLATFORM_InitDelay                     0x080003b0   Section        0  platform.o(i.PLATFORM_InitDelay)
    i.PWR_DeepStop_EXTI_Wakeup_Sample        0x08000404   Section        0  pwr_deepstop_exti_wakeup.o(i.PWR_DeepStop_EXTI_Wakeup_Sample)
    i.PWR_EXTI_Configure                     0x08000450   Section        0  pwr_deepstop_exti_wakeup.o(i.PWR_EXTI_Configure)
    i.PWR_EnterSTOPMode                      0x080004d8   Section        0  hal_pwr.o(i.PWR_EnterSTOPMode)
    i.PWR_GPIO_Configure                     0x08000530   Section        0  pwr_deepstop_exti_wakeup.o(i.PWR_GPIO_Configure)
    i.PWR_Pretreatment                       0x08000580   Section        0  pwr_deepstop_exti_wakeup.o(i.PWR_Pretreatment)
    i.PWR_Reinitialize                       0x080005b4   Section        0  pwr_deepstop_exti_wakeup.o(i.PWR_Reinitialize)
    i.PendSV_Handler                         0x080005e8   Section        0  mcpxx_it.o(i.PendSV_Handler)
    i.RCC_AHBPeriphClockCmd                  0x080005ec   Section        0  hal_rcc.o(i.RCC_AHBPeriphClockCmd)
    i.RCC_APB1PeriphClockCmd                 0x0800060c   Section        0  hal_rcc.o(i.RCC_APB1PeriphClockCmd)
    i.RCC_GetClocksFreq                      0x0800062c   Section        0  hal_rcc.o(i.RCC_GetClocksFreq)
    i.SVC_Handler                            0x080006b8   Section        0  mcpxx_it.o(i.SVC_Handler)
    i.SYSCFG_EXTILineConfig                  0x080006bc   Section        0  hal_syscfg.o(i.SYSCFG_EXTILineConfig)
    i.SetSysClockToDefine                    0x08000760   Section        0  system_mcp1081.o(i.SetSysClockToDefine)
    SetSysClockToDefine                      0x08000761   Thumb Code   308  system_mcp1081.o(i.SetSysClockToDefine)
    i.SysTick_Handler                        0x080008a8   Section        0  mcpxx_it.o(i.SysTick_Handler)
    i.SystemInit                             0x080008c0   Section        0  system_mcp1081.o(i.SystemInit)
    i.USART_Cmd                              0x08000900   Section        0  hal_usart.o(i.USART_Cmd)
    i.USART_Configure                        0x0800091c   Section        0  pwr_deepstop_exti_wakeup.o(i.USART_Configure)
    i.USART_GetFlagStatus                    0x080009d0   Section        0  hal_usart.o(i.USART_GetFlagStatus)
    i.USART_ITConfig                         0x080009e2   Section        0  hal_usart.o(i.USART_ITConfig)
    i.USART_Init                             0x08000a10   Section        0  hal_usart.o(i.USART_Init)
    i.USART_SendData                         0x08000aa4   Section        0  hal_usart.o(i.USART_SendData)
    i.USART_StructInit                       0x08000aac   Section        0  hal_usart.o(i.USART_StructInit)
    i.__0printf$bare                         0x08000ac0   Section        0  printfb.o(i.__0printf$bare)
    i.__NVIC_SetPriority                     0x08000ad4   Section        0  platform.o(i.__NVIC_SetPriority)
    __NVIC_SetPriority                       0x08000ad5   Thumb Code   110  platform.o(i.__NVIC_SetPriority)
    i.__scatterload_copy                     0x08000b4c   Section       14  handlers.o(i.__scatterload_copy)
    i.__scatterload_null                     0x08000b5a   Section        2  handlers.o(i.__scatterload_null)
    i.__scatterload_zeroinit                 0x08000b5c   Section       14  handlers.o(i.__scatterload_zeroinit)
    i._printf_core                           0x08000b6a   Section        0  printfb.o(i._printf_core)
    _printf_core                             0x08000b6b   Thumb Code    30  printfb.o(i._printf_core)
    i.fputc                                  0x08000b88   Section        0  pwr_deepstop_exti_wakeup.o(i.fputc)
    i.main                                   0x08000bac   Section        0  main.o(i.main)
    .data                                    0x20000000   Section        4  platform.o(.data)
    .data                                    0x20000004   Section       24  hal_rcc.o(.data)
    .data                                    0x2000001c   Section        4  system_mcp1081.o(.data)
    .data                                    0x20000020   Section        4  stdout.o(.data)
    STACK                                    0x20000028   Section      512  startup_mcp1081_keil.o(STACK)

    Global Symbols

    Symbol Name                              Value     Ov Type        Size  Object(Section)

    BuildAttributes$$THM_ISAv3M$S$PE$A:L22$X:L11$S22$IEEE1$IW$USESV6$~STKCKD$USESV7$~SHL$OSPACE$ROPI$EBA8$MICROLIB$REQ8$PRES8$EABIv2 0x00000000   Number         0  anon$$obj.o ABSOLUTE
    __ARM_use_no_argv                        0x00000000   Number         0  main.o ABSOLUTE
    __arm_fini_                               - Undefined Weak Reference
    __cpp_initialize__aeabi_                  - Undefined Weak Reference
    __cxa_finalize                            - Undefined Weak Reference
    __decompress                              - Undefined Weak Reference
    _clock_init                               - Undefined Weak Reference
    _microlib_exit                            - Undefined Weak Reference
    __Vectors_Size                           0x000000c0   Number         0  startup_mcp1081_keil.o ABSOLUTE
    __Vectors                                0x08000000   Data           4  startup_mcp1081_keil.o(RESET)
    __Vectors_End                            0x080000c0   Data           0  startup_mcp1081_keil.o(RESET)
    __main                                   0x080000c1   Thumb Code     0  entry.o(.ARM.Collect$$$$00000000)
    _main_stk                                0x080000c1   Thumb Code     0  entry2.o(.ARM.Collect$$$$00000001)
    _main_scatterload                        0x080000c5   Thumb Code     0  entry5.o(.ARM.Collect$$$$00000004)
    __main_after_scatterload                 0x080000c9   Thumb Code     0  entry5.o(.ARM.Collect$$$$00000004)
    _main_clock                              0x080000c9   Thumb Code     0  entry7b.o(.ARM.Collect$$$$00000008)
    _main_cpp_init                           0x080000c9   Thumb Code     0  entry8b.o(.ARM.Collect$$$$0000000A)
    _main_init                               0x080000c9   Thumb Code     0  entry9a.o(.ARM.Collect$$$$0000000B)
    __rt_lib_shutdown_fini                   0x080000d1   Thumb Code     0  entry12b.o(.ARM.Collect$$$$0000000E)
    __rt_final_cpp                           0x080000d5   Thumb Code     0  entry10a.o(.ARM.Collect$$$$0000000F)
    __rt_final_exit                          0x080000d5   Thumb Code     0  entry11a.o(.ARM.Collect$$$$00000011)
    Reset_Handler                            0x080000d9   Thumb Code     8  startup_mcp1081_keil.o(.text)
    ADC_IRQHandler                           0x080000eb   Thumb Code     0  startup_mcp1081_keil.o(.text)
    EXTI0_1_IRQHandler                       0x080000eb   Thumb Code     0  startup_mcp1081_keil.o(.text)
    EXTI4_15_IRQHandler                      0x080000eb   Thumb Code     0  startup_mcp1081_keil.o(.text)
    FLASH_IRQHandler                         0x080000eb   Thumb Code     0  startup_mcp1081_keil.o(.text)
    I2C1_IRQHandler                          0x080000eb   Thumb Code     0  startup_mcp1081_keil.o(.text)
    IWDG_IRQHandler                          0x080000eb   Thumb Code     0  startup_mcp1081_keil.o(.text)
    PVD_IRQHandler                           0x080000eb   Thumb Code     0  startup_mcp1081_keil.o(.text)
    RCC_IRQHandler                           0x080000eb   Thumb Code     0  startup_mcp1081_keil.o(.text)
    SPI1_IRQHandler                          0x080000eb   Thumb Code     0  startup_mcp1081_keil.o(.text)
    TIM14_IRQHandler                         0x080000eb   Thumb Code     0  startup_mcp1081_keil.o(.text)
    TIM1_BRK_UP_TRG_COM_IRQHandler           0x080000eb   Thumb Code     0  startup_mcp1081_keil.o(.text)
    TIM1_CC_IRQHandler                       0x080000eb   Thumb Code     0  startup_mcp1081_keil.o(.text)
    TIM3_IRQHandler                          0x080000eb   Thumb Code     0  startup_mcp1081_keil.o(.text)
    USART1_IRQHandler                        0x080000eb   Thumb Code     0  startup_mcp1081_keil.o(.text)
    USART2_IRQHandler                        0x080000eb   Thumb Code     0  startup_mcp1081_keil.o(.text)
    __aeabi_uidiv                            0x080000f5   Thumb Code     0  uidiv.o(.text)
    __aeabi_uidivmod                         0x080000f5   Thumb Code    44  uidiv.o(.text)
    __scatterload                            0x08000121   Thumb Code    28  init.o(.text)
    __scatterload_rt2                        0x08000121   Thumb Code     0  init.o(.text)
    EXTI2_3_IRQHandler                       0x08000145   Thumb Code    20  mcpxx_it.o(i.EXTI2_3_IRQHandler)
    EXTI_ClearITPendingBit                   0x08000159   Thumb Code     6  hal_exti.o(i.EXTI_ClearITPendingBit)
    EXTI_GetITStatus                         0x08000165   Thumb Code    30  hal_exti.o(i.EXTI_GetITStatus)
    EXTI_Init                                0x08000189   Thumb Code   186  hal_exti.o(i.EXTI_Init)
    EXTI_StructInit                          0x08000249   Thumb Code    16  hal_exti.o(i.EXTI_StructInit)
    GPIO_Init                                0x08000259   Thumb Code   154  hal_gpio.o(i.GPIO_Init)
    GPIO_PinAFConfig                         0x080002f3   Thumb Code    40  hal_gpio.o(i.GPIO_PinAFConfig)
    GPIO_SetBits                             0x0800031b   Thumb Code     4  hal_gpio.o(i.GPIO_SetBits)
    GPIO_StructInit                          0x0800031f   Thumb Code    16  hal_gpio.o(i.GPIO_StructInit)
    HardFault_Handler                        0x0800032f   Thumb Code     4  mcpxx_it.o(i.HardFault_Handler)
    NMI_Handler                              0x08000333   Thumb Code     2  mcpxx_it.o(i.NMI_Handler)
    NVIC_Init                                0x08000335   Thumb Code   100  hal_misc.o(i.NVIC_Init)
    PLATFORM_DelayMS                         0x0800039d   Thumb Code    16  platform.o(i.PLATFORM_DelayMS)
    PLATFORM_InitDelay                       0x080003b1   Thumb Code    76  platform.o(i.PLATFORM_InitDelay)
    PWR_DeepStop_EXTI_Wakeup_Sample          0x08000405   Thumb Code    54  pwr_deepstop_exti_wakeup.o(i.PWR_DeepStop_EXTI_Wakeup_Sample)
    PWR_EXTI_Configure                       0x08000451   Thumb Code   136  pwr_deepstop_exti_wakeup.o(i.PWR_EXTI_Configure)
    PWR_EnterSTOPMode                        0x080004d9   Thumb Code    80  hal_pwr.o(i.PWR_EnterSTOPMode)
    PWR_GPIO_Configure                       0x08000531   Thumb Code    72  pwr_deepstop_exti_wakeup.o(i.PWR_GPIO_Configure)
    PWR_Pretreatment                         0x08000581   Thumb Code    24  pwr_deepstop_exti_wakeup.o(i.PWR_Pretreatment)
    PWR_Reinitialize                         0x080005b5   Thumb Code    32  pwr_deepstop_exti_wakeup.o(i.PWR_Reinitialize)
    PendSV_Handler                           0x080005e9   Thumb Code     2  mcpxx_it.o(i.PendSV_Handler)
    RCC_AHBPeriphClockCmd                    0x080005ed   Thumb Code    28  hal_rcc.o(i.RCC_AHBPeriphClockCmd)
    RCC_APB1PeriphClockCmd                   0x0800060d   Thumb Code    28  hal_rcc.o(i.RCC_APB1PeriphClockCmd)
    RCC_GetClocksFreq                        0x0800062d   Thumb Code   110  hal_rcc.o(i.RCC_GetClocksFreq)
    SVC_Handler                              0x080006b9   Thumb Code     2  mcpxx_it.o(i.SVC_Handler)
    SYSCFG_EXTILineConfig                    0x080006bd   Thumb Code   158  hal_syscfg.o(i.SYSCFG_EXTILineConfig)
    SysTick_Handler                          0x080008a9   Thumb Code    20  mcpxx_it.o(i.SysTick_Handler)
    SystemInit                               0x080008c1   Thumb Code    56  system_mcp1081.o(i.SystemInit)
    USART_Cmd                                0x08000901   Thumb Code    28  hal_usart.o(i.USART_Cmd)
    USART_Configure                          0x0800091d   Thumb Code   174  pwr_deepstop_exti_wakeup.o(i.USART_Configure)
    USART_GetFlagStatus                      0x080009d1   Thumb Code    18  hal_usart.o(i.USART_GetFlagStatus)
    USART_ITConfig                           0x080009e3   Thumb Code    44  hal_usart.o(i.USART_ITConfig)
    USART_Init                               0x08000a11   Thumb Code   140  hal_usart.o(i.USART_Init)
    USART_SendData                           0x08000aa5   Thumb Code     8  hal_usart.o(i.USART_SendData)
    USART_StructInit                         0x08000aad   Thumb Code    20  hal_usart.o(i.USART_StructInit)
    __0printf$bare                           0x08000ac1   Thumb Code    12  printfb.o(i.__0printf$bare)
    __1printf$bare                           0x08000ac1   Thumb Code     0  printfb.o(i.__0printf$bare)
    __2printf                                0x08000ac1   Thumb Code     0  printfb.o(i.__0printf$bare)
    __scatterload_copy                       0x08000b4d   Thumb Code    14  handlers.o(i.__scatterload_copy)
    __scatterload_null                       0x08000b5b   Thumb Code     2  handlers.o(i.__scatterload_null)
    __scatterload_zeroinit                   0x08000b5d   Thumb Code    14  handlers.o(i.__scatterload_zeroinit)
    fputc                                    0x08000b89   Thumb Code    32  pwr_deepstop_exti_wakeup.o(i.fputc)
    main                                     0x08000bad   Thumb Code     8  main.o(i.main)
    Region$$Table$$Base                      0x08000bb4   Number         0  anon$$obj.o(Region$$Table)
    Region$$Table$$Limit                     0x08000bd4   Number         0  anon$$obj.o(Region$$Table)
    PLATFORM_DelayTick                       0x20000000   Data           4  platform.o(.data)
    AHBPreTable                              0x20000004   Data          16  hal_rcc.o(.data)
    APBPreTable                              0x20000014   Data           8  hal_rcc.o(.data)
    SystemCoreClock                          0x2000001c   Data           4  system_mcp1081.o(.data)
    __stdout                                 0x20000020   Data           4  stdout.o(.data)
    __initial_sp                             0x20000228   Data           0  startup_mcp1081_keil.o(STACK)



==============================================================================

Memory Map of the image

  Image Entry point : 0x080000c1

  Load Region LR_IROM1 (Base: 0x08000000, Size: 0x00000bf8, Max: 0x00004000, ABSOLUTE)

    Execution Region ER_IROM1 (Exec base: 0x08000000, Load base: 0x08000000, Size: 0x00000bd4, Max: 0x00004000, ABSOLUTE)

    Exec Addr    Load Addr    Size         Type   Attr      Idx    E Section Name        Object

    0x08000000   0x08000000   0x000000c0   Data   RO         2230    RESET               startup_mcp1081_keil.o
    0x080000c0   0x080000c0   0x00000000   Code   RO         2235  * .ARM.Collect$$$$00000000  mc_p.l(entry.o)
    0x080000c0   0x080000c0   0x00000004   Code   RO         2500    .ARM.Collect$$$$00000001  mc_p.l(entry2.o)
    0x080000c4   0x080000c4   0x00000004   Code   RO         2503    .ARM.Collect$$$$00000004  mc_p.l(entry5.o)
    0x080000c8   0x080000c8   0x00000000   Code   RO         2505    .ARM.Collect$$$$00000008  mc_p.l(entry7b.o)
    0x080000c8   0x080000c8   0x00000000   Code   RO         2507    .ARM.Collect$$$$0000000A  mc_p.l(entry8b.o)
    0x080000c8   0x080000c8   0x00000008   Code   RO         2508    .ARM.Collect$$$$0000000B  mc_p.l(entry9a.o)
    0x080000d0   0x080000d0   0x00000004   Code   RO         2515    .ARM.Collect$$$$0000000E  mc_p.l(entry12b.o)
    0x080000d4   0x080000d4   0x00000000   Code   RO         2510    .ARM.Collect$$$$0000000F  mc_p.l(entry10a.o)
    0x080000d4   0x080000d4   0x00000000   Code   RO         2512    .ARM.Collect$$$$00000011  mc_p.l(entry11a.o)
    0x080000d4   0x080000d4   0x00000004   Code   RO         2501    .ARM.Collect$$$$00002712  mc_p.l(entry2.o)
    0x080000d8   0x080000d8   0x0000001c   Code   RO         2231    .text               startup_mcp1081_keil.o
    0x080000f4   0x080000f4   0x0000002c   Code   RO         2238    .text               mc_p.l(uidiv.o)
    0x08000120   0x08000120   0x00000024   Code   RO         2530    .text               mc_p.l(init.o)
    0x08000144   0x08000144   0x00000014   Code   RO          267    i.EXTI2_3_IRQHandler  mcpxx_it.o
    0x08000158   0x08000158   0x0000000c   Code   RO          555    i.EXTI_ClearITPendingBit  hal_exti.o
    0x08000164   0x08000164   0x00000024   Code   RO          559    i.EXTI_GetITStatus  hal_exti.o
    0x08000188   0x08000188   0x000000c0   Code   RO          560    i.EXTI_Init         hal_exti.o
    0x08000248   0x08000248   0x00000010   Code   RO          561    i.EXTI_StructInit   hal_exti.o
    0x08000258   0x08000258   0x0000009a   Code   RO          785    i.GPIO_Init         hal_gpio.o
    0x080002f2   0x080002f2   0x00000028   Code   RO          786    i.GPIO_PinAFConfig  hal_gpio.o
    0x0800031a   0x0800031a   0x00000004   Code   RO          793    i.GPIO_SetBits      hal_gpio.o
    0x0800031e   0x0800031e   0x00000010   Code   RO          794    i.GPIO_StructInit   hal_gpio.o
    0x0800032e   0x0800032e   0x00000004   Code   RO          268    i.HardFault_Handler  mcpxx_it.o
    0x08000332   0x08000332   0x00000002   Code   RO          269    i.NMI_Handler       mcpxx_it.o
    0x08000334   0x08000334   0x00000068   Code   RO         1125    i.NVIC_Init         hal_misc.o
    0x0800039c   0x0800039c   0x00000014   Code   RO          227    i.PLATFORM_DelayMS  platform.o
    0x080003b0   0x080003b0   0x00000054   Code   RO          228    i.PLATFORM_InitDelay  platform.o
    0x08000404   0x08000404   0x0000004c   Code   RO          154    i.PWR_DeepStop_EXTI_Wakeup_Sample  pwr_deepstop_exti_wakeup.o
    0x08000450   0x08000450   0x00000088   Code   RO          155    i.PWR_EXTI_Configure  pwr_deepstop_exti_wakeup.o
    0x080004d8   0x080004d8   0x00000058   Code   RO         1159    i.PWR_EnterSTOPMode  hal_pwr.o
    0x08000530   0x08000530   0x00000050   Code   RO          156    i.PWR_GPIO_Configure  pwr_deepstop_exti_wakeup.o
    0x08000580   0x08000580   0x00000034   Code   RO          157    i.PWR_Pretreatment  pwr_deepstop_exti_wakeup.o
    0x080005b4   0x080005b4   0x00000034   Code   RO          158    i.PWR_Reinitialize  pwr_deepstop_exti_wakeup.o
    0x080005e8   0x080005e8   0x00000002   Code   RO          270    i.PendSV_Handler    mcpxx_it.o
    0x080005ea   0x080005ea   0x00000002   PAD
    0x080005ec   0x080005ec   0x00000020   Code   RO         1207    i.RCC_AHBPeriphClockCmd  hal_rcc.o
    0x0800060c   0x0800060c   0x00000020   Code   RO         1209    i.RCC_APB1PeriphClockCmd  hal_rcc.o
    0x0800062c   0x0800062c   0x0000008c   Code   RO         1214    i.RCC_GetClocksFreq  hal_rcc.o
    0x080006b8   0x080006b8   0x00000002   Code   RO          271    i.SVC_Handler       mcpxx_it.o
    0x080006ba   0x080006ba   0x00000002   PAD
    0x080006bc   0x080006bc   0x000000a4   Code   RO         1455    i.SYSCFG_EXTILineConfig  hal_syscfg.o
    0x08000760   0x08000760   0x00000148   Code   RO         2190    i.SetSysClockToDefine  system_mcp1081.o
    0x080008a8   0x080008a8   0x00000018   Code   RO          272    i.SysTick_Handler   mcpxx_it.o
    0x080008c0   0x080008c0   0x00000040   Code   RO         2191    i.SystemInit        system_mcp1081.o
    0x08000900   0x08000900   0x0000001c   Code   RO         2082    i.USART_Cmd         hal_usart.o
    0x0800091c   0x0800091c   0x000000b4   Code   RO          159    i.USART_Configure   pwr_deepstop_exti_wakeup.o
    0x080009d0   0x080009d0   0x00000012   Code   RO         2084    i.USART_GetFlagStatus  hal_usart.o
    0x080009e2   0x080009e2   0x0000002c   Code   RO         2087    i.USART_ITConfig    hal_usart.o
    0x08000a0e   0x08000a0e   0x00000002   PAD
    0x08000a10   0x08000a10   0x00000094   Code   RO         2088    i.USART_Init        hal_usart.o
    0x08000aa4   0x08000aa4   0x00000008   Code   RO         2091    i.USART_SendData    hal_usart.o
    0x08000aac   0x08000aac   0x00000014   Code   RO         2092    i.USART_StructInit  hal_usart.o
    0x08000ac0   0x08000ac0   0x00000014   Code   RO         2241    i.__0printf$bare    mc_p.l(printfb.o)
    0x08000ad4   0x08000ad4   0x00000078   Code   RO          229    i.__NVIC_SetPriority  platform.o
    0x08000b4c   0x08000b4c   0x0000000e   Code   RO         2544    i.__scatterload_copy  mc_p.l(handlers.o)
    0x08000b5a   0x08000b5a   0x00000002   Code   RO         2545    i.__scatterload_null  mc_p.l(handlers.o)
    0x08000b5c   0x08000b5c   0x0000000e   Code   RO         2546    i.__scatterload_zeroinit  mc_p.l(handlers.o)
    0x08000b6a   0x08000b6a   0x0000001e   Code   RO         2248    i._printf_core      mc_p.l(printfb.o)
    0x08000b88   0x08000b88   0x00000024   Code   RO          160    i.fputc             pwr_deepstop_exti_wakeup.o
    0x08000bac   0x08000bac   0x00000008   Code   RO            3    i.main              main.o
    0x08000bb4   0x08000bb4   0x00000020   Data   RO         2542    Region$$Table       anon$$obj.o


    Execution Region RW_IRAM1 (Exec base: 0x20000000, Load base: 0x08000bd4, Size: 0x00000228, Max: 0x00000800, ABSOLUTE)

    Exec Addr    Load Addr    Size         Type   Attr      Idx    E Section Name        Object

    0x20000000   0x08000bd4   0x00000004   Data   RW          230    .data               platform.o
    0x20000004   0x08000bd8   0x00000018   Data   RW         1225    .data               hal_rcc.o
    0x2000001c   0x08000bf0   0x00000004   Data   RW         2192    .data               system_mcp1081.o
    0x20000020   0x08000bf4   0x00000004   Data   RW         2516    .data               mc_p.l(stdout.o)
    0x20000024   0x08000bf8   0x00000004   PAD
    0x20000028        -       0x00000200   Zero   RW         2228    STACK               startup_mcp1081_keil.o


==============================================================================

Image component sizes


      Code (inc. data)   RO Data    RW Data    ZI Data      Debug   Object Name

       256         18          0          0          0       2762   hal_exti.o
       214          0          0          0          0       3176   hal_gpio.o
       104          4          0          0          0        952   hal_misc.o
        88          8          0          0          0        636   hal_pwr.o
       204         38          0         24          0       2639   hal_rcc.o
       164          6          0          0          0        740   hal_syscfg.o
       266          8          0          0          0       4184   hal_usart.o
         8          0          0          0          0      49521   main.o
        54          4          0          0          0       2648   mcpxx_it.o
       224         22          0          4          0      10133   platform.o
       612         88          0          0          0      10454   pwr_deepstop_exti_wakeup.o
        28          8        192          0        512        732   startup_mcp1081_keil.o
       392         28          0          4          0       3143   system_mcp1081.o

    ----------------------------------------------------------------------
      2620        232        224         32        512      91720   Object Totals
         0          0         32          0          0          0   (incl. Generated)
         6          0          0          0          0          0   (incl. Padding)

    ----------------------------------------------------------------------

      Code (inc. data)   RO Data    RW Data    ZI Data      Debug   Library Member Name

         0          0          0          0          0          0   entry.o
         0          0          0          0          0          0   entry10a.o
         0          0          0          0          0          0   entry11a.o
         4          0          0          0          0          0   entry12b.o
         8          4          0          0          0          0   entry2.o
         4          0          0          0          0          0   entry5.o
         0          0          0          0          0          0   entry7b.o
         0          0          0          0          0          0   entry8b.o
         8          4          0          0          0          0   entry9a.o
        30          0          0          0          0          0   handlers.o
        36          8          0          0          0         68   init.o
        50          8          0          0          0        144   printfb.o
         0          0          0          4          0          0   stdout.o
        44          0          0          0          0         72   uidiv.o

    ----------------------------------------------------------------------
       184         24          0          4          4        284   Library Totals
         0          0          0          0          4          0   (incl. Padding)

    ----------------------------------------------------------------------

      Code (inc. data)   RO Data    RW Data    ZI Data      Debug   Library Name

       184         24          0          4          0        284   mc_p.l

    ----------------------------------------------------------------------
       184         24          0          4          4        284   Library Totals

    ----------------------------------------------------------------------

==============================================================================


      Code (inc. data)   RO Data    RW Data    ZI Data      Debug   

      2804        256        224         36        516      90528   Grand Totals
      2804        256        224         36        516      90528   ELF Image Totals
      2804        256        224         36          0          0   ROM Totals

==============================================================================

    Total RO  Size (Code + RO Data)                 3028 (   2.96kB)
    Total RW  Size (RW Data + ZI Data)               552 (   0.54kB)
    Total ROM Size (Code + RO Data + RW Data)       3064 (   2.99kB)

==============================================================================

